{
  "_format": "hh-sol-artifact-1",
  "contractName": "Domains",
  "sourceName": "contracts/Domains.sol",
  "abi": [
    {
      "inputs": [
        {
          "internalType": "string",
          "name": "_tld",
          "type": "string"
        }
      ],
      "stateMutability": "payable",
      "type": "constructor"
    },
    {
      "inputs": [],
      "name": "AlreadyRegistered",
      "type": "error"
    },
    {
      "inputs": [
        {
          "internalType": "string",
          "name": "name",
          "type": "string"
        }
      ],
      "name": "InvalidName",
      "type": "error"
    },
    {
      "inputs": [],
      "name": "Unauthorized",
      "type": "error"
    },
    {
      "anonymous": false,
      "inputs": [
        {
          "indexed": true,
          "internalType": "address",
          "name": "owner",
          "type": "address"
        },
        {
          "indexed": true,
          "internalType": "address",
          "name": "approved",
          "type": "address"
        },
        {
          "indexed": true,
          "internalType": "uint256",
          "name": "tokenId",
          "type": "uint256"
        }
      ],
      "name": "Approval",
      "type": "event"
    },
    {
      "anonymous": false,
      "inputs": [
        {
          "indexed": true,
          "internalType": "address",
          "name": "owner",
          "type": "address"
        },
        {
          "indexed": true,
          "internalType": "address",
          "name": "operator",
          "type": "address"
        },
        {
          "indexed": false,
          "internalType": "bool",
          "name": "approved",
          "type": "bool"
        }
      ],
      "name": "ApprovalForAll",
      "type": "event"
    },
    {
      "anonymous": false,
      "inputs": [
        {
          "indexed": true,
          "internalType": "address",
          "name": "from",
          "type": "address"
        },
        {
          "indexed": true,
          "internalType": "address",
          "name": "to",
          "type": "address"
        },
        {
          "indexed": true,
          "internalType": "uint256",
          "name": "tokenId",
          "type": "uint256"
        }
      ],
      "name": "Transfer",
      "type": "event"
    },
    {
      "inputs": [
        {
          "internalType": "address",
          "name": "to",
          "type": "address"
        },
        {
          "internalType": "uint256",
          "name": "tokenId",
          "type": "uint256"
        }
      ],
      "name": "approve",
      "outputs": [],
      "stateMutability": "nonpayable",
      "type": "function"
    },
    {
      "inputs": [
        {
          "internalType": "address",
          "name": "owner",
          "type": "address"
        }
      ],
      "name": "balanceOf",
      "outputs": [
        {
          "internalType": "uint256",
          "name": "",
          "type": "uint256"
        }
      ],
      "stateMutability": "view",
      "type": "function"
    },
    {
      "inputs": [
        {
          "internalType": "string",
          "name": "",
          "type": "string"
        }
      ],
      "name": "domains",
      "outputs": [
        {
          "internalType": "address",
          "name": "",
          "type": "address"
        }
      ],
      "stateMutability": "view",
      "type": "function"
    },
    {
      "inputs": [
        {
          "internalType": "string",
          "name": "name",
          "type": "string"
        }
      ],
      "name": "getAddress",
      "outputs": [
        {
          "internalType": "address",
          "name": "",
          "type": "address"
        }
      ],
      "stateMutability": "view",
      "type": "function"
    },
    {
      "inputs": [],
      "name": "getAllNames",
      "outputs": [
        {
          "internalType": "string[]",
          "name": "",
          "type": "string[]"
        }
      ],
      "stateMutability": "view",
      "type": "function"
    },
    {
      "inputs": [
        {
          "internalType": "uint256",
          "name": "tokenId",
          "type": "uint256"
        }
      ],
      "name": "getApproved",
      "outputs": [
        {
          "internalType": "address",
          "name": "",
          "type": "address"
        }
      ],
      "stateMutability": "view",
      "type": "function"
    },
    {
      "inputs": [
        {
          "internalType": "string",
          "name": "name",
          "type": "string"
        }
      ],
      "name": "getRecord",
      "outputs": [
        {
          "internalType": "string",
          "name": "",
          "type": "string"
        }
      ],
      "stateMutability": "view",
      "type": "function"
    },
    {
      "inputs": [
        {
          "internalType": "address",
          "name": "owner",
          "type": "address"
        },
        {
          "internalType": "address",
          "name": "operator",
          "type": "address"
        }
      ],
      "name": "isApprovedForAll",
      "outputs": [
        {
          "internalType": "bool",
          "name": "",
          "type": "bool"
        }
      ],
      "stateMutability": "view",
      "type": "function"
    },
    {
      "inputs": [],
      "name": "isOwner",
      "outputs": [
        {
          "internalType": "bool",
          "name": "",
          "type": "bool"
        }
      ],
      "stateMutability": "view",
      "type": "function"
    },
    {
      "inputs": [],
      "name": "name",
      "outputs": [
        {
          "internalType": "string",
          "name": "",
          "type": "string"
        }
      ],
      "stateMutability": "view",
      "type": "function"
    },
    {
      "inputs": [
        {
          "internalType": "uint256",
          "name": "",
          "type": "uint256"
        }
      ],
      "name": "names",
      "outputs": [
        {
          "internalType": "string",
          "name": "",
          "type": "string"
        }
      ],
      "stateMutability": "view",
      "type": "function"
    },
    {
      "inputs": [],
      "name": "owner",
      "outputs": [
        {
          "internalType": "address payable",
          "name": "",
          "type": "address"
        }
      ],
      "stateMutability": "view",
      "type": "function"
    },
    {
      "inputs": [
        {
          "internalType": "uint256",
          "name": "tokenId",
          "type": "uint256"
        }
      ],
      "name": "ownerOf",
      "outputs": [
        {
          "internalType": "address",
          "name": "",
          "type": "address"
        }
      ],
      "stateMutability": "view",
      "type": "function"
    },
    {
      "inputs": [
        {
          "internalType": "string",
          "name": "name",
          "type": "string"
        }
      ],
      "name": "price",
      "outputs": [
        {
          "internalType": "uint256",
          "name": "",
          "type": "uint256"
        }
      ],
      "stateMutability": "pure",
      "type": "function"
    },
    {
      "inputs": [
        {
          "internalType": "string",
          "name": "",
          "type": "string"
        }
      ],
      "name": "records",
      "outputs": [
        {
          "internalType": "string",
          "name": "",
          "type": "string"
        }
      ],
      "stateMutability": "view",
      "type": "function"
    },
    {
      "inputs": [
        {
          "internalType": "string",
          "name": "name",
          "type": "string"
        }
      ],
      "name": "register",
      "outputs": [],
      "stateMutability": "payable",
      "type": "function"
    },
    {
      "inputs": [
        {
          "internalType": "address",
          "name": "from",
          "type": "address"
        },
        {
          "internalType": "address",
          "name": "to",
          "type": "address"
        },
        {
          "internalType": "uint256",
          "name": "tokenId",
          "type": "uint256"
        }
      ],
      "name": "safeTransferFrom",
      "outputs": [],
      "stateMutability": "nonpayable",
      "type": "function"
    },
    {
      "inputs": [
        {
          "internalType": "address",
          "name": "from",
          "type": "address"
        },
        {
          "internalType": "address",
          "name": "to",
          "type": "address"
        },
        {
          "internalType": "uint256",
          "name": "tokenId",
          "type": "uint256"
        },
        {
          "internalType": "bytes",
          "name": "data",
          "type": "bytes"
        }
      ],
      "name": "safeTransferFrom",
      "outputs": [],
      "stateMutability": "nonpayable",
      "type": "function"
    },
    {
      "inputs": [
        {
          "internalType": "address",
          "name": "operator",
          "type": "address"
        },
        {
          "internalType": "bool",
          "name": "approved",
          "type": "bool"
        }
      ],
      "name": "setApprovalForAll",
      "outputs": [],
      "stateMutability": "nonpayable",
      "type": "function"
    },
    {
      "inputs": [
        {
          "internalType": "string",
          "name": "name",
          "type": "string"
        },
        {
          "internalType": "string",
          "name": "record",
          "type": "string"
        }
      ],
      "name": "setRecord",
      "outputs": [],
      "stateMutability": "nonpayable",
      "type": "function"
    },
    {
      "inputs": [
        {
          "internalType": "bytes4",
          "name": "interfaceId",
          "type": "bytes4"
        }
      ],
      "name": "supportsInterface",
      "outputs": [
        {
          "internalType": "bool",
          "name": "",
          "type": "bool"
        }
      ],
      "stateMutability": "view",
      "type": "function"
    },
    {
      "inputs": [],
      "name": "symbol",
      "outputs": [
        {
          "internalType": "string",
          "name": "",
          "type": "string"
        }
      ],
      "stateMutability": "view",
      "type": "function"
    },
    {
      "inputs": [],
      "name": "tld",
      "outputs": [
        {
          "internalType": "string",
          "name": "",
          "type": "string"
        }
      ],
      "stateMutability": "view",
      "type": "function"
    },
    {
      "inputs": [
        {
          "internalType": "uint256",
          "name": "tokenId",
          "type": "uint256"
        }
      ],
      "name": "tokenURI",
      "outputs": [
        {
          "internalType": "string",
          "name": "",
          "type": "string"
        }
      ],
      "stateMutability": "view",
      "type": "function"
    },
    {
      "inputs": [
        {
          "internalType": "address",
          "name": "from",
          "type": "address"
        },
        {
          "internalType": "address",
          "name": "to",
          "type": "address"
        },
        {
          "internalType": "uint256",
          "name": "tokenId",
          "type": "uint256"
        }
      ],
      "name": "transferFrom",
      "outputs": [],
      "stateMutability": "nonpayable",
      "type": "function"
    },
    {
      "inputs": [
        {
          "internalType": "string",
          "name": "name",
          "type": "string"
        }
      ],
      "name": "valid",
      "outputs": [
        {
          "internalType": "bool",
          "name": "",
          "type": "bool"
        }
      ],
      "stateMutability": "pure",
      "type": "function"
    },
    {
      "inputs": [],
      "name": "withdraw",
      "outputs": [],
      "stateMutability": "nonpayable",
      "type": "function"
    }
  ],
  "bytecode": "0x6080604052604051806108a0016040528061086b815260200162004f8461086b91396009908051906020019062000038929190620002c8565b506040518060400160405280600d81526020017f3c2f746578743e3c2f7376673e00000000000000000000000000000000000000815250600a908051906020019062000086929190620002c8565b50604051620057ef380380620057ef8339818101604052810190620000ac919062000515565b6040518060400160405280601181526020017f436f6f6c206e616d6520736572766963650000000000000000000000000000008152506040518060400160405280600481526020017f6865686500000000000000000000000000000000000000000000000000000000815250816000908051906020019062000130929190620002c8565b50806001908051906020019062000149929190620002c8565b50505033600e60006101000a81548173ffffffffffffffffffffffffffffffffffffffff021916908373ffffffffffffffffffffffffffffffffffffffff1602179055508060089080519060200190620001a5929190620002c8565b50620001f26040518060400160405280601881526020017f2573206e616d652073657276696365206465706c6f796564000000000000000081525082620001f960201b62001ace1760201c565b5062000663565b6200029b828260405160240162000212929190620005c3565b6040516020818303038152906040527f4b5c4277000000000000000000000000000000000000000000000000000000007bffffffffffffffffffffffffffffffffffffffffffffffffffffffff19166020820180517bffffffffffffffffffffffffffffffffffffffffffffffffffffffff83818316178352505050506200029f60201b60201c565b5050565b60008151905060006a636f6e736f6c652e6c6f679050602083016000808483855afa5050505050565b828054620002d6906200062d565b90600052602060002090601f016020900481019282620002fa576000855562000346565b82601f106200031557805160ff191683800117855562000346565b8280016001018555821562000346579182015b828111156200034557825182559160200191906001019062000328565b5b50905062000355919062000359565b5090565b5b80821115620003745760008160009055506001016200035a565b5090565b6000604051905090565b600080fd5b600080fd5b600080fd5b600080fd5b6000601f19601f8301169050919050565b7f4e487b7100000000000000000000000000000000000000000000000000000000600052604160045260246000fd5b620003e18262000396565b810181811067ffffffffffffffff82111715620004035762000402620003a7565b5b80604052505050565b60006200041862000378565b9050620004268282620003d6565b919050565b600067ffffffffffffffff821115620004495762000448620003a7565b5b620004548262000396565b9050602081019050919050565b60005b838110156200048157808201518184015260208101905062000464565b8381111562000491576000848401525b50505050565b6000620004ae620004a8846200042b565b6200040c565b905082815260208101848484011115620004cd57620004cc62000391565b5b620004da84828562000461565b509392505050565b600082601f830112620004fa57620004f96200038c565b5b81516200050c84826020860162000497565b91505092915050565b6000602082840312156200052e576200052d62000382565b5b600082015167ffffffffffffffff8111156200054f576200054e62000387565b5b6200055d84828501620004e2565b91505092915050565b600081519050919050565b600082825260208201905092915050565b60006200058f8262000566565b6200059b818562000571565b9350620005ad81856020860162000461565b620005b88162000396565b840191505092915050565b60006040820190508181036000830152620005df818562000582565b90508181036020830152620005f5818462000582565b90509392505050565b7f4e487b7100000000000000000000000000000000000000000000000000000000600052602260045260246000fd5b600060028204905060018216806200064657607f821691505b602082108114156200065d576200065c620005fe565b5b50919050565b61491180620006736000396000f3fe60806040526004361061019c5760003560e01c806370a08231116100ec578063bf40fac11161008a578063e985e9c511610064578063e985e9c514610624578063f2c298be14610661578063fb825e5f1461067d578063fe2c6198146106a85761019c565b8063bf40fac114610581578063c1880a98146105be578063c87b56dd146105e75761019c565b806395d89b41116100c657806395d89b41146104c75780639791c097146104f2578063a22cb4651461052f578063b88d4fde146105585761019c565b806370a08231146104345780638da5cb5b146104715780638f32d59b1461049c5761019c565b8063264492351161015957806342842e0e1161013357806342842e0e146103545780634622ab031461037d578063541e771d146103ba5780636352211e146103f75761019c565b806326449235146102d55780632d551432146103125780633ccfd60b1461033d5761019c565b806301ffc9a7146101a157806306fdde03146101de578063081812fc14610209578063095ea7b31461024657806311dd88451461026f57806323b872dd146102ac575b600080fd5b3480156101ad57600080fd5b506101c860048036038101906101c39190612f85565b6106e5565b6040516101d59190612fcd565b60405180910390f35b3480156101ea57600080fd5b506101f36107c7565b6040516102009190613081565b60405180910390f35b34801561021557600080fd5b50610230600480360381019061022b91906130d9565b610859565b60405161023d9190613147565b60405180910390f35b34801561025257600080fd5b5061026d6004803603810190610268919061318e565b61089f565b005b34801561027b57600080fd5b5061029660048036038101906102919190613233565b6109b7565b6040516102a39190613081565b60405180910390f35b3480156102b857600080fd5b506102d360048036038101906102ce9190613280565b610a6a565b005b3480156102e157600080fd5b506102fc60048036038101906102f79190613403565b610aca565b6040516103099190613147565b60405180910390f35b34801561031e57600080fd5b50610327610b13565b6040516103349190613081565b60405180910390f35b34801561034957600080fd5b50610352610ba1565b005b34801561036057600080fd5b5061037b60048036038101906103769190613280565b610c67565b005b34801561038957600080fd5b506103a4600480360381019061039f91906130d9565b610c87565b6040516103b19190613081565b60405180910390f35b3480156103c657600080fd5b506103e160048036038101906103dc9190613403565b610d27565b6040516103ee9190613081565b60405180910390f35b34801561040357600080fd5b5061041e600480360381019061041991906130d9565b610ddd565b60405161042b9190613147565b60405180910390f35b34801561044057600080fd5b5061045b6004803603810190610456919061344c565b610e8f565b6040516104689190613488565b60405180910390f35b34801561047d57600080fd5b50610486610f47565b60405161049391906134c4565b60405180910390f35b3480156104a857600080fd5b506104b1610f6d565b6040516104be9190612fcd565b60405180910390f35b3480156104d357600080fd5b506104dc610fc5565b6040516104e99190613081565b60405180910390f35b3480156104fe57600080fd5b5061051960048036038101906105149190613233565b611057565b6040516105269190612fcd565b60405180910390f35b34801561053b57600080fd5b506105566004803603810190610551919061350b565b61110b565b005b34801561056457600080fd5b5061057f600480360381019061057a91906135ec565b611121565b005b34801561058d57600080fd5b506105a860048036038101906105a39190613233565b611183565b6040516105b59190613147565b60405180910390f35b3480156105ca57600080fd5b506105e560048036038101906105e0919061366f565b6111ce565b005b3480156105f357600080fd5b5061060e600480360381019061060991906130d9565b6112a9565b60405161061b9190613081565b60405180910390f35b34801561063057600080fd5b5061064b600480360381019061064691906136f0565b6113bc565b6040516106589190612fcd565b60405180910390f35b61067b60048036038101906106769190613233565b611450565b005b34801561068957600080fd5b5061069261184d565b60405161069f919061383c565b60405180910390f35b3480156106b457600080fd5b506106cf60048036038101906106ca9190613233565b611a2b565b6040516106dc9190613488565b60405180910390f35b60007f80ac58cd000000000000000000000000000000000000000000000000000000007bffffffffffffffffffffffffffffffffffffffffffffffffffffffff1916827bffffffffffffffffffffffffffffffffffffffffffffffffffffffff191614806107b057507f5b5e139f000000000000000000000000000000000000000000000000000000007bffffffffffffffffffffffffffffffffffffffffffffffffffffffff1916827bffffffffffffffffffffffffffffffffffffffffffffffffffffffff1916145b806107c057506107bf82611b6a565b5b9050919050565b6060600080546107d69061388d565b80601f01602080910402602001604051908101604052809291908181526020018280546108029061388d565b801561084f5780601f106108245761010080835404028352916020019161084f565b820191906000526020600020905b81548152906001019060200180831161083257829003601f168201915b5050505050905090565b600061086482611bd4565b6004600083815260200190815260200160002060009054906101000a900473ffffffffffffffffffffffffffffffffffffffff169050919050565b60006108aa82610ddd565b90508073ffffffffffffffffffffffffffffffffffffffff168373ffffffffffffffffffffffffffffffffffffffff16141561091b576040517f08c379a000000000000000000000000000000000000000000000000000000000815260040161091290613931565b60405180910390fd5b8073ffffffffffffffffffffffffffffffffffffffff1661093a611c1f565b73ffffffffffffffffffffffffffffffffffffffff161480610969575061096881610963611c1f565b6113bc565b5b6109a8576040517f08c379a000000000000000000000000000000000000000000000000000000000815260040161099f906139c3565b60405180910390fd5b6109b28383611c27565b505050565b6060600c83836040516109cb929190613a13565b908152602001604051809103902080546109e49061388d565b80601f0160208091040260200160405190810160405280929190818152602001828054610a109061388d565b8015610a5d5780601f10610a3257610100808354040283529160200191610a5d565b820191906000526020600020905b815481529060010190602001808311610a4057829003601f168201915b5050505050905092915050565b610a7b610a75611c1f565b82611ce0565b610aba576040517f08c379a0000000000000000000000000000000000000000000000000000000008152600401610ab190613a9e565b60405180910390fd5b610ac5838383611d75565b505050565b600b818051602081018201805184825260208301602085012081835280955050505050506000915054906101000a900473ffffffffffffffffffffffffffffffffffffffff1681565b60088054610b209061388d565b80601f0160208091040260200160405190810160405280929190818152602001828054610b4c9061388d565b8015610b995780601f10610b6e57610100808354040283529160200191610b99565b820191906000526020600020905b815481529060010190602001808311610b7c57829003601f168201915b505050505081565b610ba9610f6d565b610bb257600080fd5b600047905060003373ffffffffffffffffffffffffffffffffffffffff1682604051610bdd90613aef565b60006040518083038185875af1925050503d8060008114610c1a576040519150601f19603f3d011682016040523d82523d6000602084013e610c1f565b606091505b5050905080610c63576040517f08c379a0000000000000000000000000000000000000000000000000000000008152600401610c5a90613b50565b60405180910390fd5b5050565b610c8283838360405180602001604052806000815250611121565b505050565b600d6020528060005260406000206000915090508054610ca69061388d565b80601f0160208091040260200160405190810160405280929190818152602001828054610cd29061388d565b8015610d1f5780601f10610cf457610100808354040283529160200191610d1f565b820191906000526020600020905b815481529060010190602001808311610d0257829003601f168201915b505050505081565b600c818051602081018201805184825260208301602085012081835280955050505050506000915090508054610d5c9061388d565b80601f0160208091040260200160405190810160405280929190818152602001828054610d889061388d565b8015610dd55780601f10610daa57610100808354040283529160200191610dd5565b820191906000526020600020905b815481529060010190602001808311610db857829003601f168201915b505050505081565b6000806002600084815260200190815260200160002060009054906101000a900473ffffffffffffffffffffffffffffffffffffffff169050600073ffffffffffffffffffffffffffffffffffffffff168173ffffffffffffffffffffffffffffffffffffffff161415610e86576040517f08c379a0000000000000000000000000000000000000000000000000000000008152600401610e7d90613bbc565b60405180910390fd5b80915050919050565b60008073ffffffffffffffffffffffffffffffffffffffff168273ffffffffffffffffffffffffffffffffffffffff161415610f00576040517f08c379a0000000000000000000000000000000000000000000000000000000008152600401610ef790613c4e565b60405180910390fd5b600360008373ffffffffffffffffffffffffffffffffffffffff1673ffffffffffffffffffffffffffffffffffffffff168152602001908152602001600020549050919050565b600e60009054906101000a900473ffffffffffffffffffffffffffffffffffffffff1681565b6000600e60009054906101000a900473ffffffffffffffffffffffffffffffffffffffff1673ffffffffffffffffffffffffffffffffffffffff163373ffffffffffffffffffffffffffffffffffffffff1614905090565b606060018054610fd49061388d565b80601f01602080910402602001604051908101604052809291908181526020018280546110009061388d565b801561104d5780601f106110225761010080835404028352916020019161104d565b820191906000526020600020905b81548152906001019060200180831161103057829003601f168201915b5050505050905090565b600060036110a884848080601f016020809104026020016040519081016040528093929190818152602001838380828437600081840152601f19601f82011690508083019250505050505050611fdc565b101580156111035750600a61110084848080601f016020809104026020016040519081016040528093929190818152602001838380828437600081840152601f19601f82011690508083019250505050505050611fdc565b11155b905092915050565b61111d611116611c1f565b8383612191565b5050565b61113261112c611c1f565b83611ce0565b611171576040517f08c379a000000000000000000000000000000000000000000000000000000000815260040161116890613a9e565b60405180910390fd5b61117d848484846122fe565b50505050565b6000600b8383604051611197929190613a13565b908152602001604051809103902060009054906101000a900473ffffffffffffffffffffffffffffffffffffffff16905092915050565b600b84846040516111e0929190613a13565b908152602001604051809103902060009054906101000a900473ffffffffffffffffffffffffffffffffffffffff1673ffffffffffffffffffffffffffffffffffffffff163373ffffffffffffffffffffffffffffffffffffffff1614611273576040517f82b4290000000000000000000000000000000000000000000000000000000000815260040160405180910390fd5b8181600c8686604051611287929190613a13565b908152602001604051809103902091906112a2929190612df0565b5050505050565b60606112b482611bd4565b60006006600084815260200190815260200160002080546112d49061388d565b80601f01602080910402602001604051908101604052809291908181526020018280546113009061388d565b801561134d5780601f106113225761010080835404028352916020019161134d565b820191906000526020600020905b81548152906001019060200180831161133057829003601f168201915b50505050509050600061135e61235a565b90506000815114156113745781925050506113b7565b6000825111156113a9578082604051602001611391929190613c9f565b604051602081830303815290604052925050506113b7565b6113b284612371565b925050505b919050565b6000600560008473ffffffffffffffffffffffffffffffffffffffff1673ffffffffffffffffffffffffffffffffffffffff16815260200190815260200160002060008373ffffffffffffffffffffffffffffffffffffffff1673ffffffffffffffffffffffffffffffffffffffff16815260200190815260200160002060009054906101000a900460ff16905092915050565b600073ffffffffffffffffffffffffffffffffffffffff16600b838360405161147a929190613a13565b908152602001604051809103902060009054906101000a900473ffffffffffffffffffffffffffffffffffffffff1673ffffffffffffffffffffffffffffffffffffffff16146114f6576040517f3a81d6fc00000000000000000000000000000000000000000000000000000000815260040160405180910390fd5b6115008282611057565b6115435781816040517f7f19f48d00000000000000000000000000000000000000000000000000000000815260040161153a929190613cf0565b60405180910390fd5b600061154f8383611a2b565b905080341015611594576040517f08c379a000000000000000000000000000000000000000000000000000000000815260040161158b90613d60565b60405180910390fd5b6000838360086040516020016115ac93929190613e60565b60405160208183030381529060405290506000600982600a6040516020016115d693929190613e91565b604051602081830303815290604052905060006115f360076123d9565b9050600061164487878080601f016020809104026020016040519081016040528093929190818152602001838380828437600081840152601f19601f82011690508083019250505050505050611fdc565b90506000611651826123e7565b905061174560405180606001604052806031815260200161486b6031913989898080601f016020809104026020016040519081016040528093929190818152602001838380828437600081840152601f19601f82011690508083019250505050505050600880546116c19061388d565b80601f01602080910402602001604051908101604052809291908181526020018280546116ed9061388d565b801561173a5780601f1061170f5761010080835404028352916020019161173a565b820191906000526020600020905b81548152906001019060200180831161171d57829003601f168201915b505050505086612548565b600061177b86611754876125ea565b846040516020016117679392919061403e565b6040516020818303038152906040526125ea565b905060008160405160200161179091906140e7565b60405160208183030381529060405290506117ab3386612782565b6117b585826127a0565b33600b8b8b6040516117c8929190613a13565b908152602001604051809103902060006101000a81548173ffffffffffffffffffffffffffffffffffffffff021916908373ffffffffffffffffffffffffffffffffffffffff1602179055508989600d60008881526020019081526020016000209190611836929190612df0565b506118416007612814565b50505050505050505050565b606061188d6040518060400160405280601f81526020017f47657474696e6720616c6c206e616d65732066726f6d20636f6e74726163740081525061282a565b600061189960076123d9565b67ffffffffffffffff8111156118b2576118b16132d8565b5b6040519080825280602002602001820160405280156118e557816020015b60608152602001906001900390816118d05790505b50905060005b6118f560076123d9565b811015611a2357600d6000828152602001908152602001600020805461191a9061388d565b80601f01602080910402602001604051908101604052809291908181526020018280546119469061388d565b80156119935780601f1061196857610100808354040283529160200191611993565b820191906000526020600020905b81548152906001019060200180831161197657829003601f168201915b50505050508282815181106119ab576119aa614109565b5b6020026020010181905250611a106040518060400160405280601781526020017f4e616d6520666f7220746f6b656e20256420697320257300000000000000000081525082848481518110611a0357611a02614109565b5b60200260200101516128c3565b8080611a1b90614167565b9150506118eb565b508091505090565b600080611a7b84848080601f016020809104026020016040519081016040528093929190818152602001838380828437600081840152601f19601f82011690508083019250505050505050611fdc565b905060008111611a8a57600080fd5b6003811415611aa357666a94d74f430000915050611ac8565b6004811415611abc5766470de4df820000915050611ac8565b662386f26fc100009150505b92915050565b611b668282604051602401611ae49291906141b0565b6040516020818303038152906040527f4b5c4277000000000000000000000000000000000000000000000000000000007bffffffffffffffffffffffffffffffffffffffffffffffffffffffff19166020820180517bffffffffffffffffffffffffffffffffffffffffffffffffffffffff8381831617835250505050612962565b5050565b60007f01ffc9a7000000000000000000000000000000000000000000000000000000007bffffffffffffffffffffffffffffffffffffffffffffffffffffffff1916827bffffffffffffffffffffffffffffffffffffffffffffffffffffffff1916149050919050565b611bdd8161298b565b611c1c576040517f08c379a0000000000000000000000000000000000000000000000000000000008152600401611c1390613bbc565b60405180910390fd5b50565b600033905090565b816004600083815260200190815260200160002060006101000a81548173ffffffffffffffffffffffffffffffffffffffff021916908373ffffffffffffffffffffffffffffffffffffffff160217905550808273ffffffffffffffffffffffffffffffffffffffff16611c9a83610ddd565b73ffffffffffffffffffffffffffffffffffffffff167f8c5be1e5ebec7d5bd14f71427d1e84f3dd0314c0f7b2291e5b200ac8c7c3b92560405160405180910390a45050565b600080611cec83610ddd565b90508073ffffffffffffffffffffffffffffffffffffffff168473ffffffffffffffffffffffffffffffffffffffff161480611d2e5750611d2d81856113bc565b5b80611d6c57508373ffffffffffffffffffffffffffffffffffffffff16611d5484610859565b73ffffffffffffffffffffffffffffffffffffffff16145b91505092915050565b8273ffffffffffffffffffffffffffffffffffffffff16611d9582610ddd565b73ffffffffffffffffffffffffffffffffffffffff1614611deb576040517f08c379a0000000000000000000000000000000000000000000000000000000008152600401611de290614259565b60405180910390fd5b600073ffffffffffffffffffffffffffffffffffffffff168273ffffffffffffffffffffffffffffffffffffffff161415611e5b576040517f08c379a0000000000000000000000000000000000000000000000000000000008152600401611e52906142eb565b60405180910390fd5b611e668383836129f7565b611e71600082611c27565b6001600360008573ffffffffffffffffffffffffffffffffffffffff1673ffffffffffffffffffffffffffffffffffffffff1681526020019081526020016000206000828254611ec1919061430b565b925050819055506001600360008473ffffffffffffffffffffffffffffffffffffffff1673ffffffffffffffffffffffffffffffffffffffff1681526020019081526020016000206000828254611f18919061433f565b92505081905550816002600083815260200190815260200160002060006101000a81548173ffffffffffffffffffffffffffffffffffffffff021916908373ffffffffffffffffffffffffffffffffffffffff160217905550808273ffffffffffffffffffffffffffffffffffffffff168473ffffffffffffffffffffffffffffffffffffffff167fddf252ad1be2c89b69c2b068fc378daa952ba7f163c4a11628f55a4df523b3ef60405160405180910390a4611fd78383836129fc565b505050565b60008060008084519050600092505b8082101561218657600085838151811061200857612007614109565b5b602001015160f81c60f81b9050608060f81b817effffffffffffffffffffffffffffffffffffffffffffffffffffffffffffff1916101561205757600183612050919061433f565b9250612172565b60e060f81b817effffffffffffffffffffffffffffffffffffffffffffffffffffffffffffff1916101561209957600283612092919061433f565b9250612171565b60f060f81b817effffffffffffffffffffffffffffffffffffffffffffffffffffffffffffff191610156120db576003836120d4919061433f565b9250612170565b60f8801b817effffffffffffffffffffffffffffffffffffffffffffffffffffffffffffff1916101561211c57600483612115919061433f565b925061216f565b60fc60f81b817effffffffffffffffffffffffffffffffffffffffffffffffffffffffffffff1916101561215e57600583612157919061433f565b925061216e565b60068361216b919061433f565b92505b5b5b5b5b50828061217e90614167565b935050611feb565b829350505050919050565b8173ffffffffffffffffffffffffffffffffffffffff168373ffffffffffffffffffffffffffffffffffffffff161415612200576040517f08c379a00000000000000000000000000000000000000000000000000000000081526004016121f7906143e1565b60405180910390fd5b80600560008573ffffffffffffffffffffffffffffffffffffffff1673ffffffffffffffffffffffffffffffffffffffff16815260200190815260200160002060008473ffffffffffffffffffffffffffffffffffffffff1673ffffffffffffffffffffffffffffffffffffffff16815260200190815260200160002060006101000a81548160ff0219169083151502179055508173ffffffffffffffffffffffffffffffffffffffff168373ffffffffffffffffffffffffffffffffffffffff167f17307eab39ab6107e8899845ad3d59bd9653f200f220920489ca2b5937696c31836040516122f19190612fcd565b60405180910390a3505050565b612309848484611d75565b61231584848484612a01565b612354576040517f08c379a000000000000000000000000000000000000000000000000000000000815260040161234b90614473565b60405180910390fd5b50505050565b606060405180602001604052806000815250905090565b606061237c82611bd4565b600061238661235a565b905060008151116123a657604051806020016040528060008152506123d1565b806123b0846123e7565b6040516020016123c1929190613c9f565b6040516020818303038152906040525b915050919050565b600081600001549050919050565b6060600082141561242f576040518060400160405280600181526020017f30000000000000000000000000000000000000000000000000000000000000008152509050612543565b600082905060005b6000821461246157808061244a90614167565b915050600a8261245a91906144c2565b9150612437565b60008167ffffffffffffffff81111561247d5761247c6132d8565b5b6040519080825280601f01601f1916602001820160405280156124af5781602001600182028036833780820191505090505b5090505b6000851461253c576001826124c8919061430b565b9150600a856124d791906144f3565b60306124e3919061433f565b60f81b8183815181106124f9576124f8614109565b5b60200101907effffffffffffffffffffffffffffffffffffffffffffffffffffffffffffff1916908160001a905350600a8561253591906144c2565b94506124b3565b8093505050505b919050565b6125e4848484846040516024016125629493929190614524565b6040516020818303038152906040527f9fd009f5000000000000000000000000000000000000000000000000000000007bffffffffffffffffffffffffffffffffffffffffffffffffffffffff19166020820180517bffffffffffffffffffffffffffffffffffffffffffffffffffffffff8381831617835250505050612962565b50505050565b60606000825190506000811415612613576040518060200160405280600081525091505061277d565b60006003600283612624919061433f565b61262e91906144c2565b600461263a919061457e565b9050600060208261264b919061433f565b67ffffffffffffffff811115612664576126636132d8565b5b6040519080825280601f01601f1916602001820160405280156126965781602001600182028036833780820191505090505b509050600060405180606001604052806040815260200161489c604091399050600181016020830160005b8681101561273a5760038101905062ffffff818a015116603f8160121c168401518060081b905060ff603f83600c1c1686015116810190508060081b905060ff603f8360061c1686015116810190508060081b905060ff603f831686015116810190508060e01b905080845260048401935050506126c1565b50600386066001811461275457600281146127645761276f565b613d3d60f01b600283035261276f565b603d60f81b60018303525b508484525050819450505050505b919050565b61279c828260405180602001604052806000815250612b98565b5050565b6127a98261298b565b6127e8576040517f08c379a00000000000000000000000000000000000000000000000000000000081526004016127df9061464a565b60405180910390fd5b8060066000848152602001908152602001600020908051906020019061280f929190612e76565b505050565b6001816000016000828254019250508190555050565b6128c08160405160240161283e9190613081565b6040516020818303038152906040527f41304fac000000000000000000000000000000000000000000000000000000007bffffffffffffffffffffffffffffffffffffffffffffffffffffffff19166020820180517bffffffffffffffffffffffffffffffffffffffffffffffffffffffff8381831617835250505050612962565b50565b61295d8383836040516024016128db9392919061466a565b6040516020818303038152906040527fa3f5c739000000000000000000000000000000000000000000000000000000007bffffffffffffffffffffffffffffffffffffffffffffffffffffffff19166020820180517bffffffffffffffffffffffffffffffffffffffffffffffffffffffff8381831617835250505050612962565b505050565b60008151905060006a636f6e736f6c652e6c6f679050602083016000808483855afa5050505050565b60008073ffffffffffffffffffffffffffffffffffffffff166002600084815260200190815260200160002060009054906101000a900473ffffffffffffffffffffffffffffffffffffffff1673ffffffffffffffffffffffffffffffffffffffff1614159050919050565b505050565b505050565b6000612a228473ffffffffffffffffffffffffffffffffffffffff16612bf3565b15612b8b578373ffffffffffffffffffffffffffffffffffffffff1663150b7a02612a4b611c1f565b8786866040518563ffffffff1660e01b8152600401612a6d9493929190614704565b602060405180830381600087803b158015612a8757600080fd5b505af1925050508015612ab857506040513d601f19601f82011682018060405250810190612ab59190614765565b60015b612b3b573d8060008114612ae8576040519150601f19603f3d011682016040523d82523d6000602084013e612aed565b606091505b50600081511415612b33576040517f08c379a0000000000000000000000000000000000000000000000000000000008152600401612b2a90614473565b60405180910390fd5b805181602001fd5b63150b7a0260e01b7bffffffffffffffffffffffffffffffffffffffffffffffffffffffff1916817bffffffffffffffffffffffffffffffffffffffffffffffffffffffff191614915050612b90565b600190505b949350505050565b612ba28383612c16565b612baf6000848484612a01565b612bee576040517f08c379a0000000000000000000000000000000000000000000000000000000008152600401612be590614473565b60405180910390fd5b505050565b6000808273ffffffffffffffffffffffffffffffffffffffff163b119050919050565b600073ffffffffffffffffffffffffffffffffffffffff168273ffffffffffffffffffffffffffffffffffffffff161415612c86576040517f08c379a0000000000000000000000000000000000000000000000000000000008152600401612c7d906147de565b60405180910390fd5b612c8f8161298b565b15612ccf576040517f08c379a0000000000000000000000000000000000000000000000000000000008152600401612cc69061484a565b60405180910390fd5b612cdb600083836129f7565b6001600360008473ffffffffffffffffffffffffffffffffffffffff1673ffffffffffffffffffffffffffffffffffffffff1681526020019081526020016000206000828254612d2b919061433f565b92505081905550816002600083815260200190815260200160002060006101000a81548173ffffffffffffffffffffffffffffffffffffffff021916908373ffffffffffffffffffffffffffffffffffffffff160217905550808273ffffffffffffffffffffffffffffffffffffffff16600073ffffffffffffffffffffffffffffffffffffffff167fddf252ad1be2c89b69c2b068fc378daa952ba7f163c4a11628f55a4df523b3ef60405160405180910390a4612dec600083836129fc565b5050565b828054612dfc9061388d565b90600052602060002090601f016020900481019282612e1e5760008555612e65565b82601f10612e3757803560ff1916838001178555612e65565b82800160010185558215612e65579182015b82811115612e64578235825591602001919060010190612e49565b5b509050612e729190612efc565b5090565b828054612e829061388d565b90600052602060002090601f016020900481019282612ea45760008555612eeb565b82601f10612ebd57805160ff1916838001178555612eeb565b82800160010185558215612eeb579182015b82811115612eea578251825591602001919060010190612ecf565b5b509050612ef89190612efc565b5090565b5b80821115612f15576000816000905550600101612efd565b5090565b6000604051905090565b600080fd5b600080fd5b60007fffffffff0000000000000000000000000000000000000000000000000000000082169050919050565b612f6281612f2d565b8114612f6d57600080fd5b50565b600081359050612f7f81612f59565b92915050565b600060208284031215612f9b57612f9a612f23565b5b6000612fa984828501612f70565b91505092915050565b60008115159050919050565b612fc781612fb2565b82525050565b6000602082019050612fe26000830184612fbe565b92915050565b600081519050919050565b600082825260208201905092915050565b60005b83811015613022578082015181840152602081019050613007565b83811115613031576000848401525b50505050565b6000601f19601f8301169050919050565b600061305382612fe8565b61305d8185612ff3565b935061306d818560208601613004565b61307681613037565b840191505092915050565b6000602082019050818103600083015261309b8184613048565b905092915050565b6000819050919050565b6130b6816130a3565b81146130c157600080fd5b50565b6000813590506130d3816130ad565b92915050565b6000602082840312156130ef576130ee612f23565b5b60006130fd848285016130c4565b91505092915050565b600073ffffffffffffffffffffffffffffffffffffffff82169050919050565b600061313182613106565b9050919050565b61314181613126565b82525050565b600060208201905061315c6000830184613138565b92915050565b61316b81613126565b811461317657600080fd5b50565b60008135905061318881613162565b92915050565b600080604083850312156131a5576131a4612f23565b5b60006131b385828601613179565b92505060206131c4858286016130c4565b9150509250929050565b600080fd5b600080fd5b600080fd5b60008083601f8401126131f3576131f26131ce565b5b8235905067ffffffffffffffff8111156132105761320f6131d3565b5b60208301915083600182028301111561322c5761322b6131d8565b5b9250929050565b6000806020838503121561324a57613249612f23565b5b600083013567ffffffffffffffff81111561326857613267612f28565b5b613274858286016131dd565b92509250509250929050565b60008060006060848603121561329957613298612f23565b5b60006132a786828701613179565b93505060206132b886828701613179565b92505060406132c9868287016130c4565b9150509250925092565b600080fd5b7f4e487b7100000000000000000000000000000000000000000000000000000000600052604160045260246000fd5b61331082613037565b810181811067ffffffffffffffff8211171561332f5761332e6132d8565b5b80604052505050565b6000613342612f19565b905061334e8282613307565b919050565b600067ffffffffffffffff82111561336e5761336d6132d8565b5b61337782613037565b9050602081019050919050565b82818337600083830152505050565b60006133a66133a184613353565b613338565b9050828152602081018484840111156133c2576133c16132d3565b5b6133cd848285613384565b509392505050565b600082601f8301126133ea576133e96131ce565b5b81356133fa848260208601613393565b91505092915050565b60006020828403121561341957613418612f23565b5b600082013567ffffffffffffffff81111561343757613436612f28565b5b613443848285016133d5565b91505092915050565b60006020828403121561346257613461612f23565b5b600061347084828501613179565b91505092915050565b613482816130a3565b82525050565b600060208201905061349d6000830184613479565b92915050565b60006134ae82613106565b9050919050565b6134be816134a3565b82525050565b60006020820190506134d960008301846134b5565b92915050565b6134e881612fb2565b81146134f357600080fd5b50565b600081359050613505816134df565b92915050565b6000806040838503121561352257613521612f23565b5b600061353085828601613179565b9250506020613541858286016134f6565b9150509250929050565b600067ffffffffffffffff821115613566576135656132d8565b5b61356f82613037565b9050602081019050919050565b600061358f61358a8461354b565b613338565b9050828152602081018484840111156135ab576135aa6132d3565b5b6135b6848285613384565b509392505050565b600082601f8301126135d3576135d26131ce565b5b81356135e384826020860161357c565b91505092915050565b6000806000806080858703121561360657613605612f23565b5b600061361487828801613179565b945050602061362587828801613179565b9350506040613636878288016130c4565b925050606085013567ffffffffffffffff81111561365757613656612f28565b5b613663878288016135be565b91505092959194509250565b6000806000806040858703121561368957613688612f23565b5b600085013567ffffffffffffffff8111156136a7576136a6612f28565b5b6136b3878288016131dd565b9450945050602085013567ffffffffffffffff8111156136d6576136d5612f28565b5b6136e2878288016131dd565b925092505092959194509250565b6000806040838503121561370757613706612f23565b5b600061371585828601613179565b925050602061372685828601613179565b9150509250929050565b600081519050919050565b600082825260208201905092915050565b6000819050602082019050919050565b600082825260208201905092915050565b600061377882612fe8565b613782818561375c565b9350613792818560208601613004565b61379b81613037565b840191505092915050565b60006137b2838361376d565b905092915050565b6000602082019050919050565b60006137d282613730565b6137dc818561373b565b9350836020820285016137ee8561374c565b8060005b8581101561382a578484038952815161380b85826137a6565b9450613816836137ba565b925060208a019950506001810190506137f2565b50829750879550505050505092915050565b6000602082019050818103600083015261385681846137c7565b905092915050565b7f4e487b7100000000000000000000000000000000000000000000000000000000600052602260045260246000fd5b600060028204905060018216806138a557607f821691505b602082108114156138b9576138b861385e565b5b50919050565b7f4552433732313a20617070726f76616c20746f2063757272656e74206f776e6560008201527f7200000000000000000000000000000000000000000000000000000000000000602082015250565b600061391b602183612ff3565b9150613926826138bf565b604082019050919050565b6000602082019050818103600083015261394a8161390e565b9050919050565b7f4552433732313a20617070726f76652063616c6c6572206973206e6f7420746f60008201527f6b656e206f776e6572206e6f7220617070726f76656420666f7220616c6c0000602082015250565b60006139ad603e83612ff3565b91506139b882613951565b604082019050919050565b600060208201905081810360008301526139dc816139a0565b9050919050565b600081905092915050565b60006139fa83856139e3565b9350613a07838584613384565b82840190509392505050565b6000613a208284866139ee565b91508190509392505050565b7f4552433732313a2063616c6c6572206973206e6f7420746f6b656e206f776e6560008201527f72206e6f7220617070726f766564000000000000000000000000000000000000602082015250565b6000613a88602e83612ff3565b9150613a9382613a2c565b604082019050919050565b60006020820190508181036000830152613ab781613a7b565b9050919050565b600081905092915050565b50565b6000613ad9600083613abe565b9150613ae482613ac9565b600082019050919050565b6000613afa82613acc565b9150819050919050565b7f4661696c656420746f2077697468647261772066756e64730000000000000000600082015250565b6000613b3a601883612ff3565b9150613b4582613b04565b602082019050919050565b60006020820190508181036000830152613b6981613b2d565b9050919050565b7f4552433732313a20696e76616c696420746f6b656e2049440000000000000000600082015250565b6000613ba6601883612ff3565b9150613bb182613b70565b602082019050919050565b60006020820190508181036000830152613bd581613b99565b9050919050565b7f4552433732313a2061646472657373207a65726f206973206e6f74206120766160008201527f6c6964206f776e65720000000000000000000000000000000000000000000000602082015250565b6000613c38602983612ff3565b9150613c4382613bdc565b604082019050919050565b60006020820190508181036000830152613c6781613c2b565b9050919050565b6000613c7982612fe8565b613c8381856139e3565b9350613c93818560208601613004565b80840191505092915050565b6000613cab8285613c6e565b9150613cb78284613c6e565b91508190509392505050565b6000613ccf8385612ff3565b9350613cdc838584613384565b613ce583613037565b840190509392505050565b60006020820190508181036000830152613d0b818486613cc3565b90509392505050565b7f4e6f20656e6f756768204d415449430000000000000000000000000000000000600082015250565b6000613d4a600f83612ff3565b9150613d5582613d14565b602082019050919050565b60006020820190508181036000830152613d7981613d3d565b9050919050565b7f2e00000000000000000000000000000000000000000000000000000000000000600082015250565b6000613db66001836139e3565b9150613dc182613d80565b600182019050919050565b60008190508160005260206000209050919050565b60008154613dee8161388d565b613df881866139e3565b94506001821660008114613e135760018114613e2457613e57565b60ff19831686528186019350613e57565b613e2d85613dcc565b60005b83811015613e4f57815481890152600182019150602081019050613e30565b838801955050505b50505092915050565b6000613e6d8285876139ee565b9150613e7882613da9565b9150613e848284613de1565b9150819050949350505050565b6000613e9d8286613de1565b9150613ea98285613c6e565b9150613eb58284613de1565b9150819050949350505050565b7f7b226e616d65223a202200000000000000000000000000000000000000000000600082015250565b6000613ef8600a836139e3565b9150613f0382613ec2565b600a82019050919050565b7f222c20226465736372697074696f6e223a20224120646f6d61696e206f6e207460008201527f686520636f6f6c206e616d652073657276696365222c2022696d616765223a2060208201527f22646174613a696d6167652f7376672b786d6c3b6261736536342c0000000000604082015250565b6000613f90605b836139e3565b9150613f9b82613f0e565b605b82019050919050565b7f222c226c656e677468223a220000000000000000000000000000000000000000600082015250565b6000613fdc600c836139e3565b9150613fe782613fa6565b600c82019050919050565b7f227d000000000000000000000000000000000000000000000000000000000000600082015250565b60006140286002836139e3565b915061403382613ff2565b600282019050919050565b600061404982613eeb565b91506140558286613c6e565b915061406082613f83565b915061406c8285613c6e565b915061407782613fcf565b91506140838284613c6e565b915061408e8261401b565b9150819050949350505050565b7f646174613a6170706c69636174696f6e2f6a736f6e3b6261736536342c000000600082015250565b60006140d1601d836139e3565b91506140dc8261409b565b601d82019050919050565b60006140f2826140c4565b91506140fe8284613c6e565b915081905092915050565b7f4e487b7100000000000000000000000000000000000000000000000000000000600052603260045260246000fd5b7f4e487b7100000000000000000000000000000000000000000000000000000000600052601160045260246000fd5b6000614172826130a3565b91507fffffffffffffffffffffffffffffffffffffffffffffffffffffffffffffffff8214156141a5576141a4614138565b5b600182019050919050565b600060408201905081810360008301526141ca8185613048565b905081810360208301526141de8184613048565b90509392505050565b7f4552433732313a207472616e736665722066726f6d20696e636f72726563742060008201527f6f776e6572000000000000000000000000000000000000000000000000000000602082015250565b6000614243602583612ff3565b915061424e826141e7565b604082019050919050565b6000602082019050818103600083015261427281614236565b9050919050565b7f4552433732313a207472616e7366657220746f20746865207a65726f2061646460008201527f7265737300000000000000000000000000000000000000000000000000000000602082015250565b60006142d5602483612ff3565b91506142e082614279565b604082019050919050565b60006020820190508181036000830152614304816142c8565b9050919050565b6000614316826130a3565b9150614321836130a3565b92508282101561433457614333614138565b5b828203905092915050565b600061434a826130a3565b9150614355836130a3565b9250827fffffffffffffffffffffffffffffffffffffffffffffffffffffffffffffffff0382111561438a57614389614138565b5b828201905092915050565b7f4552433732313a20617070726f766520746f2063616c6c657200000000000000600082015250565b60006143cb601983612ff3565b91506143d682614395565b602082019050919050565b600060208201905081810360008301526143fa816143be565b9050919050565b7f4552433732313a207472616e7366657220746f206e6f6e20455243373231526560008201527f63656976657220696d706c656d656e7465720000000000000000000000000000602082015250565b600061445d603283612ff3565b915061446882614401565b604082019050919050565b6000602082019050818103600083015261448c81614450565b9050919050565b7f4e487b7100000000000000000000000000000000000000000000000000000000600052601260045260246000fd5b60006144cd826130a3565b91506144d8836130a3565b9250826144e8576144e7614493565b5b828204905092915050565b60006144fe826130a3565b9150614509836130a3565b92508261451957614518614493565b5b828206905092915050565b6000608082019050818103600083015261453e8187613048565b905081810360208301526145528186613048565b905081810360408301526145668185613048565b90506145756060830184613479565b95945050505050565b6000614589826130a3565b9150614594836130a3565b9250817fffffffffffffffffffffffffffffffffffffffffffffffffffffffffffffffff04831182151516156145cd576145cc614138565b5b828202905092915050565b7f45524337323155524953746f726167653a2055524920736574206f66206e6f6e60008201527f6578697374656e7420746f6b656e000000000000000000000000000000000000602082015250565b6000614634602e83612ff3565b915061463f826145d8565b604082019050919050565b6000602082019050818103600083015261466381614627565b9050919050565b600060608201905081810360008301526146848186613048565b90506146936020830185613479565b81810360408301526146a58184613048565b9050949350505050565b600081519050919050565b600082825260208201905092915050565b60006146d6826146af565b6146e081856146ba565b93506146f0818560208601613004565b6146f981613037565b840191505092915050565b60006080820190506147196000830187613138565b6147266020830186613138565b6147336040830185613479565b818103606083015261474581846146cb565b905095945050505050565b60008151905061475f81612f59565b92915050565b60006020828403121561477b5761477a612f23565b5b600061478984828501614750565b91505092915050565b7f4552433732313a206d696e7420746f20746865207a65726f2061646472657373600082015250565b60006147c8602083612ff3565b91506147d382614792565b602082019050919050565b600060208201905081810360008301526147f7816147bb565b9050919050565b7f4552433732313a20746f6b656e20616c7265616479206d696e74656400000000600082015250565b6000614834601c83612ff3565b915061483f826147fe565b602082019050919050565b6000602082019050818103600083015261486381614827565b905091905056fe5265676973746572696e672025732e2573206f6e2074686520636f6e7472616374207769746820746f6b656e49442025644142434445464748494a4b4c4d4e4f505152535455565758595a6162636465666768696a6b6c6d6e6f707172737475767778797a303132333435363738392b2fa2646970667358221220349ed9bccfa264691c0c7040c3ee87dd976954b82f179c88d5f4c55cab37152d64736f6c634300080900333c73766720786d6c6e733d22687474703a2f2f7777772e77332e6f72672f323030302f737667222077696474683d2232373022206865696768743d22323730222066696c6c3d226e6f6e65223e3c706174682066696c6c3d2275726c282342292220643d224d302030683237307632373048307a222f3e3c646566733e3c66696c7465722069643d22412220636f6c6f722d696e746572706f6c6174696f6e2d66696c746572733d2273524742222066696c746572556e6974733d227573657253706163654f6e55736522206865696768743d22323730222077696474683d22323730223e3c666544726f70536861646f772064783d2230222064793d22312220737464446576696174696f6e3d22322220666c6f6f642d6f7061636974793d222e323235222077696474683d223230302522206865696768743d2232303025222f3e3c2f66696c7465723e3c2f646566733e3c7061746820643d224d37322e3836332034322e393439632d2e3636382d2e3338372d312e3432362d2e35392d322e3139372d2e3539732d312e3532392e3230342d322e3139372e35396c2d31302e30383120362e3033322d362e383520332e3933342d31302e30383120362e303332632d2e3636382e3338372d312e3432362e35392d322e3139372e3539732d312e3532392d2e3230342d322e3139372d2e35396c2d382e3031332d342e37323161342e353220342e35322030203020312d312e3538392d312e363136632d2e3338342d2e3636352d2e3539342d312e3431382d2e3630382d322e313837762d392e3331632d2e3031332d2e3737352e3138352d312e3533382e3537322d322e32303861342e323520342e323520302030203120312e3632352d312e3539356c372e3838342d342e3539632e3636382d2e33383720312e3432362d2e353920322e3139372d2e353973312e3532392e32303420322e3139372e35396c372e38383420342e353961342e353220342e353220302030203120312e35383920312e363136632e3338342e3636352e35393420312e3431382e36303820322e31383776362e3033326c362e38352d342e303635762d362e303332632e3031332d2e3737352d2e3138352d312e3533382d2e3537322d322e32303861342e323520342e32352030203020302d312e3632352d312e3539354c34312e3435362032342e3539632d2e3636382d2e3338372d312e3432362d2e35392d322e3139372d2e3539732d312e3532392e3230342d322e3139372e35396c2d31342e38363420382e36353561342e323520342e32352030203020302d312e36323520312e353935632d2e3338372e36372d2e35383520312e3433342d2e35373220322e3230387631372e343431632d2e3031332e3737352e31383520312e3533382e35373220322e32303861342e323520342e323520302030203020312e36323520312e3539356c31342e38363420382e363535632e3636382e33383720312e3432362e353920322e3139372e353973312e3532392d2e32303420322e3139372d2e35396c31302e3038312d352e39303120362e38352d342e3036352031302e3038312d352e393031632e3636382d2e33383720312e3432362d2e353920322e3139372d2e353973312e3532392e32303420322e3139372e35396c372e38383420342e353961342e353220342e353220302030203120312e35383920312e363136632e3338342e3636352e35393420312e3431382e36303820322e31383776392e333131632e3031332e3737352d2e31383520312e3533382d2e35373220322e32303861342e323520342e32352030203020312d312e36323520312e3539356c2d372e38383420342e373231632d2e3636382e3338372d312e3432362e35392d322e3139372e3539732d312e3532392d2e3230342d322e3139372d2e35396c2d372e3838342d342e353961342e353220342e35322030203020312d312e3538392d312e363136632d2e3338352d2e3636352d2e3539342d312e3431382d2e3630382d322e313837762d362e3033326c2d362e383520342e30363576362e303332632d2e3031332e3737352e31383520312e3533382e35373220322e32303861342e323520342e323520302030203020312e36323520312e3539356c31342e38363420382e363535632e3636382e33383720312e3432362e353920322e3139372e353973312e3532392d2e32303420322e3139372d2e35396c31342e3836342d382e363535632e3635372d2e33393420312e3230342d2e393520312e3538392d312e363136732e3539342d312e3431382e3630392d322e3138375635352e353338632e3031332d2e3737352d2e3138352d312e3533382d2e3537322d322e32303861342e323520342e32352030203020302d312e3632352d312e3539356c2d31342e3939332d382e3738367a222066696c6c3d2223666666222f3e3c646566733e3c6c696e6561724772616469656e742069643d2242222078313d2230222079313d2230222078323d22323730222079323d2232373022206772616469656e74556e6974733d227573657253706163654f6e557365223e3c73746f702073746f702d636f6c6f723d2223636235656565222f3e3c73746f70206f66667365743d2231222073746f702d636f6c6f723d2223306364376534222073746f702d6f7061636974793d222e3939222f3e3c2f6c696e6561724772616469656e743e3c2f646566733e3c7465787420783d2233322e352220793d223233312220666f6e742d73697a653d223237222066696c6c3d2223666666222066696c7465723d2275726c282341292220666f6e742d66616d696c793d22506c7573204a616b617274612053616e732c44656a6156752053616e732c4e6f746f20436f6c6f7220456d6f6a692c4170706c6520436f6c6f7220456d6f6a692c73616e732d73657269662220666f6e742d7765696768743d22626f6c64223e",
  "linkReferences": {},
  "deployedLinkReferences": {}
}