{
  "_format": "hh-sol-artifact-1",
  "contractName": "Domains",
  "sourceName": "contracts/Domains.sol",
  "abi": [
    {
      "inputs": [
        {
          "internalType": "string",
          "name": "_tld",
          "type": "string"
        }
      ],
      "stateMutability": "payable",
      "type": "constructor"
    },
    {
      "anonymous": false,
      "inputs": [
        {
          "indexed": true,
          "internalType": "address",
          "name": "owner",
          "type": "address"
        },
        {
          "indexed": true,
          "internalType": "address",
          "name": "approved",
          "type": "address"
        },
        {
          "indexed": true,
          "internalType": "uint256",
          "name": "tokenId",
          "type": "uint256"
        }
      ],
      "name": "Approval",
      "type": "event"
    },
    {
      "anonymous": false,
      "inputs": [
        {
          "indexed": true,
          "internalType": "address",
          "name": "owner",
          "type": "address"
        },
        {
          "indexed": true,
          "internalType": "address",
          "name": "operator",
          "type": "address"
        },
        {
          "indexed": false,
          "internalType": "bool",
          "name": "approved",
          "type": "bool"
        }
      ],
      "name": "ApprovalForAll",
      "type": "event"
    },
    {
      "anonymous": false,
      "inputs": [
        {
          "indexed": true,
          "internalType": "address",
          "name": "from",
          "type": "address"
        },
        {
          "indexed": true,
          "internalType": "address",
          "name": "to",
          "type": "address"
        },
        {
          "indexed": true,
          "internalType": "uint256",
          "name": "tokenId",
          "type": "uint256"
        }
      ],
      "name": "Transfer",
      "type": "event"
    },
    {
      "inputs": [
        {
          "internalType": "address",
          "name": "to",
          "type": "address"
        },
        {
          "internalType": "uint256",
          "name": "tokenId",
          "type": "uint256"
        }
      ],
      "name": "approve",
      "outputs": [],
      "stateMutability": "nonpayable",
      "type": "function"
    },
    {
      "inputs": [
        {
          "internalType": "address",
          "name": "owner",
          "type": "address"
        }
      ],
      "name": "balanceOf",
      "outputs": [
        {
          "internalType": "uint256",
          "name": "",
          "type": "uint256"
        }
      ],
      "stateMutability": "view",
      "type": "function"
    },
    {
      "inputs": [
        {
          "internalType": "string",
          "name": "",
          "type": "string"
        }
      ],
      "name": "domains",
      "outputs": [
        {
          "internalType": "address",
          "name": "",
          "type": "address"
        }
      ],
      "stateMutability": "view",
      "type": "function"
    },
    {
      "inputs": [
        {
          "internalType": "string",
          "name": "name",
          "type": "string"
        }
      ],
      "name": "getAddress",
      "outputs": [
        {
          "internalType": "address",
          "name": "",
          "type": "address"
        }
      ],
      "stateMutability": "view",
      "type": "function"
    },
    {
      "inputs": [
        {
          "internalType": "uint256",
          "name": "tokenId",
          "type": "uint256"
        }
      ],
      "name": "getApproved",
      "outputs": [
        {
          "internalType": "address",
          "name": "",
          "type": "address"
        }
      ],
      "stateMutability": "view",
      "type": "function"
    },
    {
      "inputs": [
        {
          "internalType": "string",
          "name": "name",
          "type": "string"
        }
      ],
      "name": "getRecord",
      "outputs": [
        {
          "internalType": "string",
          "name": "",
          "type": "string"
        }
      ],
      "stateMutability": "view",
      "type": "function"
    },
    {
      "inputs": [
        {
          "internalType": "address",
          "name": "owner",
          "type": "address"
        },
        {
          "internalType": "address",
          "name": "operator",
          "type": "address"
        }
      ],
      "name": "isApprovedForAll",
      "outputs": [
        {
          "internalType": "bool",
          "name": "",
          "type": "bool"
        }
      ],
      "stateMutability": "view",
      "type": "function"
    },
    {
      "inputs": [],
      "name": "name",
      "outputs": [
        {
          "internalType": "string",
          "name": "",
          "type": "string"
        }
      ],
      "stateMutability": "view",
      "type": "function"
    },
    {
      "inputs": [
        {
          "internalType": "uint256",
          "name": "tokenId",
          "type": "uint256"
        }
      ],
      "name": "ownerOf",
      "outputs": [
        {
          "internalType": "address",
          "name": "",
          "type": "address"
        }
      ],
      "stateMutability": "view",
      "type": "function"
    },
    {
      "inputs": [
        {
          "internalType": "string",
          "name": "name",
          "type": "string"
        }
      ],
      "name": "price",
      "outputs": [
        {
          "internalType": "uint256",
          "name": "",
          "type": "uint256"
        }
      ],
      "stateMutability": "pure",
      "type": "function"
    },
    {
      "inputs": [
        {
          "internalType": "string",
          "name": "",
          "type": "string"
        }
      ],
      "name": "records",
      "outputs": [
        {
          "internalType": "string",
          "name": "",
          "type": "string"
        }
      ],
      "stateMutability": "view",
      "type": "function"
    },
    {
      "inputs": [
        {
          "internalType": "string",
          "name": "name",
          "type": "string"
        }
      ],
      "name": "register",
      "outputs": [],
      "stateMutability": "payable",
      "type": "function"
    },
    {
      "inputs": [
        {
          "internalType": "address",
          "name": "from",
          "type": "address"
        },
        {
          "internalType": "address",
          "name": "to",
          "type": "address"
        },
        {
          "internalType": "uint256",
          "name": "tokenId",
          "type": "uint256"
        }
      ],
      "name": "safeTransferFrom",
      "outputs": [],
      "stateMutability": "nonpayable",
      "type": "function"
    },
    {
      "inputs": [
        {
          "internalType": "address",
          "name": "from",
          "type": "address"
        },
        {
          "internalType": "address",
          "name": "to",
          "type": "address"
        },
        {
          "internalType": "uint256",
          "name": "tokenId",
          "type": "uint256"
        },
        {
          "internalType": "bytes",
          "name": "data",
          "type": "bytes"
        }
      ],
      "name": "safeTransferFrom",
      "outputs": [],
      "stateMutability": "nonpayable",
      "type": "function"
    },
    {
      "inputs": [
        {
          "internalType": "address",
          "name": "operator",
          "type": "address"
        },
        {
          "internalType": "bool",
          "name": "approved",
          "type": "bool"
        }
      ],
      "name": "setApprovalForAll",
      "outputs": [],
      "stateMutability": "nonpayable",
      "type": "function"
    },
    {
      "inputs": [
        {
          "internalType": "string",
          "name": "name",
          "type": "string"
        },
        {
          "internalType": "string",
          "name": "record",
          "type": "string"
        }
      ],
      "name": "setRecord",
      "outputs": [],
      "stateMutability": "nonpayable",
      "type": "function"
    },
    {
      "inputs": [
        {
          "internalType": "bytes4",
          "name": "interfaceId",
          "type": "bytes4"
        }
      ],
      "name": "supportsInterface",
      "outputs": [
        {
          "internalType": "bool",
          "name": "",
          "type": "bool"
        }
      ],
      "stateMutability": "view",
      "type": "function"
    },
    {
      "inputs": [],
      "name": "symbol",
      "outputs": [
        {
          "internalType": "string",
          "name": "",
          "type": "string"
        }
      ],
      "stateMutability": "view",
      "type": "function"
    },
    {
      "inputs": [],
      "name": "tld",
      "outputs": [
        {
          "internalType": "string",
          "name": "",
          "type": "string"
        }
      ],
      "stateMutability": "view",
      "type": "function"
    },
    {
      "inputs": [
        {
          "internalType": "uint256",
          "name": "tokenId",
          "type": "uint256"
        }
      ],
      "name": "tokenURI",
      "outputs": [
        {
          "internalType": "string",
          "name": "",
          "type": "string"
        }
      ],
      "stateMutability": "view",
      "type": "function"
    },
    {
      "inputs": [
        {
          "internalType": "address",
          "name": "from",
          "type": "address"
        },
        {
          "internalType": "address",
          "name": "to",
          "type": "address"
        },
        {
          "internalType": "uint256",
          "name": "tokenId",
          "type": "uint256"
        }
      ],
      "name": "transferFrom",
      "outputs": [],
      "stateMutability": "nonpayable",
      "type": "function"
    }
  ],
  "bytecode": "0x6080604052604051806108a0016040528061086b81526020016200462161086b9139600990805190602001906200003892919062000287565b506040518060400160405280600d81526020017f3c2f746578743e3c2f7376673e00000000000000000000000000000000000000815250600a90805190602001906200008692919062000287565b5060405162004e8c38038062004e8c8339818101604052810190620000ac9190620004d4565b6040518060400160405280601181526020017f436f6f6c206e616d6520736572766963650000000000000000000000000000008152506040518060400160405280600481526020017f686568650000000000000000000000000000000000000000000000000000000081525081600090805190602001906200013092919062000287565b5080600190805190602001906200014992919062000287565b50505080600890805190602001906200016492919062000287565b50620001b16040518060400160405280601881526020017f2573206e616d652073657276696365206465706c6f796564000000000000000081525082620001b860201b6200148b1760201c565b5062000622565b6200025a8282604051602401620001d192919062000582565b6040516020818303038152906040527f4b5c4277000000000000000000000000000000000000000000000000000000007bffffffffffffffffffffffffffffffffffffffffffffffffffffffff19166020820180517bffffffffffffffffffffffffffffffffffffffffffffffffffffffff83818316178352505050506200025e60201b60201c565b5050565b60008151905060006a636f6e736f6c652e6c6f679050602083016000808483855afa5050505050565b8280546200029590620005ec565b90600052602060002090601f016020900481019282620002b9576000855562000305565b82601f10620002d457805160ff191683800117855562000305565b8280016001018555821562000305579182015b8281111562000304578251825591602001919060010190620002e7565b5b50905062000314919062000318565b5090565b5b808211156200033357600081600090555060010162000319565b5090565b6000604051905090565b600080fd5b600080fd5b600080fd5b600080fd5b6000601f19601f8301169050919050565b7f4e487b7100000000000000000000000000000000000000000000000000000000600052604160045260246000fd5b620003a08262000355565b810181811067ffffffffffffffff82111715620003c257620003c162000366565b5b80604052505050565b6000620003d762000337565b9050620003e5828262000395565b919050565b600067ffffffffffffffff82111562000408576200040762000366565b5b620004138262000355565b9050602081019050919050565b60005b838110156200044057808201518184015260208101905062000423565b8381111562000450576000848401525b50505050565b60006200046d6200046784620003ea565b620003cb565b9050828152602081018484840111156200048c576200048b62000350565b5b6200049984828562000420565b509392505050565b600082601f830112620004b957620004b86200034b565b5b8151620004cb84826020860162000456565b91505092915050565b600060208284031215620004ed57620004ec62000341565b5b600082015167ffffffffffffffff8111156200050e576200050d62000346565b5b6200051c84828501620004a1565b91505092915050565b600081519050919050565b600082825260208201905092915050565b60006200054e8262000525565b6200055a818562000530565b93506200056c81856020860162000420565b620005778162000355565b840191505092915050565b600060408201905081810360008301526200059e818562000541565b90508181036020830152620005b4818462000541565b90509392505050565b7f4e487b7100000000000000000000000000000000000000000000000000000000600052602260045260246000fd5b600060028204905060018216806200060557607f821691505b602082108114156200061c576200061b620005bd565b5b50919050565b613fef80620006326000396000f3fe60806040526004361061012a5760003560e01c80636352211e116100ab578063bf40fac11161006f578063bf40fac114610428578063c1880a9814610465578063c87b56dd1461048e578063e985e9c5146104cb578063f2c298be14610508578063fe2c6198146105245761012a565b80636352211e1461033157806370a082311461036e57806395d89b41146103ab578063a22cb465146103d6578063b88d4fde146103ff5761012a565b806323b872dd116100f257806323b872dd1461023a57806326449235146102635780632d551432146102a057806342842e0e146102cb578063541e771d146102f45761012a565b806301ffc9a71461012f57806306fdde031461016c578063081812fc14610197578063095ea7b3146101d457806311dd8845146101fd575b600080fd5b34801561013b57600080fd5b50610156600480360381019061015191906128a3565b610561565b60405161016391906128eb565b60405180910390f35b34801561017857600080fd5b50610181610643565b60405161018e919061299f565b60405180910390f35b3480156101a357600080fd5b506101be60048036038101906101b991906129f7565b6106d5565b6040516101cb9190612a65565b60405180910390f35b3480156101e057600080fd5b506101fb60048036038101906101f69190612aac565b61071b565b005b34801561020957600080fd5b50610224600480360381019061021f9190612b51565b610833565b604051610231919061299f565b60405180910390f35b34801561024657600080fd5b50610261600480360381019061025c9190612b9e565b6108e6565b005b34801561026f57600080fd5b5061028a60048036038101906102859190612d21565b610946565b6040516102979190612a65565b60405180910390f35b3480156102ac57600080fd5b506102b561098f565b6040516102c2919061299f565b60405180910390f35b3480156102d757600080fd5b506102f260048036038101906102ed9190612b9e565b610a1d565b005b34801561030057600080fd5b5061031b60048036038101906103169190612d21565b610a3d565b604051610328919061299f565b60405180910390f35b34801561033d57600080fd5b50610358600480360381019061035391906129f7565b610af3565b6040516103659190612a65565b60405180910390f35b34801561037a57600080fd5b5061039560048036038101906103909190612d6a565b610ba5565b6040516103a29190612da6565b60405180910390f35b3480156103b757600080fd5b506103c0610c5d565b6040516103cd919061299f565b60405180910390f35b3480156103e257600080fd5b506103fd60048036038101906103f89190612ded565b610cef565b005b34801561040b57600080fd5b5061042660048036038101906104219190612ece565b610d05565b005b34801561043457600080fd5b5061044f600480360381019061044a9190612b51565b610d67565b60405161045c9190612a65565b60405180910390f35b34801561047157600080fd5b5061048c60048036038101906104879190612f51565b610db2565b005b34801561049a57600080fd5b506104b560048036038101906104b091906129f7565b610e60565b6040516104c2919061299f565b60405180910390f35b3480156104d757600080fd5b506104f260048036038101906104ed9190612fd2565b610f73565b6040516104ff91906128eb565b60405180910390f35b610522600480360381019061051d9190612b51565b611007565b005b34801561053057600080fd5b5061054b60048036038101906105469190612b51565b6113e8565b6040516105589190612da6565b60405180910390f35b60007f80ac58cd000000000000000000000000000000000000000000000000000000007bffffffffffffffffffffffffffffffffffffffffffffffffffffffff1916827bffffffffffffffffffffffffffffffffffffffffffffffffffffffff1916148061062c57507f5b5e139f000000000000000000000000000000000000000000000000000000007bffffffffffffffffffffffffffffffffffffffffffffffffffffffff1916827bffffffffffffffffffffffffffffffffffffffffffffffffffffffff1916145b8061063c575061063b82611527565b5b9050919050565b60606000805461065290613041565b80601f016020809104026020016040519081016040528092919081815260200182805461067e90613041565b80156106cb5780601f106106a0576101008083540402835291602001916106cb565b820191906000526020600020905b8154815290600101906020018083116106ae57829003601f168201915b5050505050905090565b60006106e082611591565b6004600083815260200190815260200160002060009054906101000a900473ffffffffffffffffffffffffffffffffffffffff169050919050565b600061072682610af3565b90508073ffffffffffffffffffffffffffffffffffffffff168373ffffffffffffffffffffffffffffffffffffffff161415610797576040517f08c379a000000000000000000000000000000000000000000000000000000000815260040161078e906130e5565b60405180910390fd5b8073ffffffffffffffffffffffffffffffffffffffff166107b66115dc565b73ffffffffffffffffffffffffffffffffffffffff1614806107e557506107e4816107df6115dc565b610f73565b5b610824576040517f08c379a000000000000000000000000000000000000000000000000000000000815260040161081b90613177565b60405180910390fd5b61082e83836115e4565b505050565b6060600c83836040516108479291906131c7565b9081526020016040518091039020805461086090613041565b80601f016020809104026020016040519081016040528092919081815260200182805461088c90613041565b80156108d95780601f106108ae576101008083540402835291602001916108d9565b820191906000526020600020905b8154815290600101906020018083116108bc57829003601f168201915b5050505050905092915050565b6108f76108f16115dc565b8261169d565b610936576040517f08c379a000000000000000000000000000000000000000000000000000000000815260040161092d90613252565b60405180910390fd5b610941838383611732565b505050565b600b818051602081018201805184825260208301602085012081835280955050505050506000915054906101000a900473ffffffffffffffffffffffffffffffffffffffff1681565b6008805461099c90613041565b80601f01602080910402602001604051908101604052809291908181526020018280546109c890613041565b8015610a155780601f106109ea57610100808354040283529160200191610a15565b820191906000526020600020905b8154815290600101906020018083116109f857829003601f168201915b505050505081565b610a3883838360405180602001604052806000815250610d05565b505050565b600c818051602081018201805184825260208301602085012081835280955050505050506000915090508054610a7290613041565b80601f0160208091040260200160405190810160405280929190818152602001828054610a9e90613041565b8015610aeb5780601f10610ac057610100808354040283529160200191610aeb565b820191906000526020600020905b815481529060010190602001808311610ace57829003601f168201915b505050505081565b6000806002600084815260200190815260200160002060009054906101000a900473ffffffffffffffffffffffffffffffffffffffff169050600073ffffffffffffffffffffffffffffffffffffffff168173ffffffffffffffffffffffffffffffffffffffff161415610b9c576040517f08c379a0000000000000000000000000000000000000000000000000000000008152600401610b93906132be565b60405180910390fd5b80915050919050565b60008073ffffffffffffffffffffffffffffffffffffffff168273ffffffffffffffffffffffffffffffffffffffff161415610c16576040517f08c379a0000000000000000000000000000000000000000000000000000000008152600401610c0d90613350565b60405180910390fd5b600360008373ffffffffffffffffffffffffffffffffffffffff1673ffffffffffffffffffffffffffffffffffffffff168152602001908152602001600020549050919050565b606060018054610c6c90613041565b80601f0160208091040260200160405190810160405280929190818152602001828054610c9890613041565b8015610ce55780601f10610cba57610100808354040283529160200191610ce5565b820191906000526020600020905b815481529060010190602001808311610cc857829003601f168201915b5050505050905090565b610d01610cfa6115dc565b8383611999565b5050565b610d16610d106115dc565b8361169d565b610d55576040517f08c379a0000000000000000000000000000000000000000000000000000000008152600401610d4c90613252565b60405180910390fd5b610d6184848484611b06565b50505050565b6000600b8383604051610d7b9291906131c7565b908152602001604051809103902060009054906101000a900473ffffffffffffffffffffffffffffffffffffffff16905092915050565b3373ffffffffffffffffffffffffffffffffffffffff16600b8585604051610ddb9291906131c7565b908152602001604051809103902060009054906101000a900473ffffffffffffffffffffffffffffffffffffffff1673ffffffffffffffffffffffffffffffffffffffff1614610e2a57600080fd5b8181600c8686604051610e3e9291906131c7565b90815260200160405180910390209190610e5992919061270e565b5050505050565b6060610e6b82611591565b6000600660008481526020019081526020016000208054610e8b90613041565b80601f0160208091040260200160405190810160405280929190818152602001828054610eb790613041565b8015610f045780601f10610ed957610100808354040283529160200191610f04565b820191906000526020600020905b815481529060010190602001808311610ee757829003601f168201915b505050505090506000610f15611b62565b9050600081511415610f2b578192505050610f6e565b600082511115610f60578082604051602001610f489291906133a1565b60405160208183030381529060405292505050610f6e565b610f6984611b79565b925050505b919050565b6000600560008473ffffffffffffffffffffffffffffffffffffffff1673ffffffffffffffffffffffffffffffffffffffff16815260200190815260200160002060008373ffffffffffffffffffffffffffffffffffffffff1673ffffffffffffffffffffffffffffffffffffffff16815260200190815260200160002060009054906101000a900460ff16905092915050565b600073ffffffffffffffffffffffffffffffffffffffff16600b83836040516110319291906131c7565b908152602001604051809103902060009054906101000a900473ffffffffffffffffffffffffffffffffffffffff1673ffffffffffffffffffffffffffffffffffffffff161461108057600080fd5b600061108c83836113e8565b9050803410156110d1576040517f08c379a00000000000000000000000000000000000000000000000000000000081526004016110c890613411565b60405180910390fd5b6000838360086040516020016110e993929190613511565b60405160208183030381529060405290506000600982600a60405160200161111393929190613542565b604051602081830303815290604052905060006111306007611be1565b9050600061118187878080601f016020809104026020016040519081016040528093929190818152602001838380828437600081840152601f19601f82011690508083019250505050505050611bef565b9050600061118e82611da4565b9050611282604051806060016040528060318152602001613f106031913989898080601f016020809104026020016040519081016040528093929190818152602001838380828437600081840152601f19601f82011690508083019250505050505050600880546111fe90613041565b80601f016020809104026020016040519081016040528092919081815260200182805461122a90613041565b80156112775780601f1061124c57610100808354040283529160200191611277565b820191906000526020600020905b81548152906001019060200180831161125a57829003601f168201915b505050505086611f05565b60006112b88661129187611fa7565b846040516020016112a4939291906136ef565b604051602081830303815290604052611fa7565b90506000816040516020016112cd9190613798565b60405160208183030381529060405290506112ff604051806060016040528060398152602001613ed76039913961213f565b61133e6040518060400160405280600e81526020017f46696e616c20746f6b656e5552490000000000000000000000000000000000008152508261148b565b61135f604051806060016040528060398152602001613f416039913961213f565b61136933866121d8565b61137385826121f6565b33600b8b8b6040516113869291906131c7565b908152602001604051809103902060006101000a81548173ffffffffffffffffffffffffffffffffffffffff021916908373ffffffffffffffffffffffffffffffffffffffff1602179055506113dc600761226a565b50505050505050505050565b60008061143884848080601f016020809104026020016040519081016040528093929190818152602001838380828437600081840152601f19601f82011690508083019250505050505050611bef565b90506000811161144757600080fd5b600381141561146057666a94d74f430000915050611485565b60048114156114795766470de4df820000915050611485565b662386f26fc100009150505b92915050565b61152382826040516024016114a19291906137ba565b6040516020818303038152906040527f4b5c4277000000000000000000000000000000000000000000000000000000007bffffffffffffffffffffffffffffffffffffffffffffffffffffffff19166020820180517bffffffffffffffffffffffffffffffffffffffffffffffffffffffff8381831617835250505050612280565b5050565b60007f01ffc9a7000000000000000000000000000000000000000000000000000000007bffffffffffffffffffffffffffffffffffffffffffffffffffffffff1916827bffffffffffffffffffffffffffffffffffffffffffffffffffffffff1916149050919050565b61159a816122a9565b6115d9576040517f08c379a00000000000000000000000000000000000000000000000000000000081526004016115d0906132be565b60405180910390fd5b50565b600033905090565b816004600083815260200190815260200160002060006101000a81548173ffffffffffffffffffffffffffffffffffffffff021916908373ffffffffffffffffffffffffffffffffffffffff160217905550808273ffffffffffffffffffffffffffffffffffffffff1661165783610af3565b73ffffffffffffffffffffffffffffffffffffffff167f8c5be1e5ebec7d5bd14f71427d1e84f3dd0314c0f7b2291e5b200ac8c7c3b92560405160405180910390a45050565b6000806116a983610af3565b90508073ffffffffffffffffffffffffffffffffffffffff168473ffffffffffffffffffffffffffffffffffffffff1614806116eb57506116ea8185610f73565b5b8061172957508373ffffffffffffffffffffffffffffffffffffffff16611711846106d5565b73ffffffffffffffffffffffffffffffffffffffff16145b91505092915050565b8273ffffffffffffffffffffffffffffffffffffffff1661175282610af3565b73ffffffffffffffffffffffffffffffffffffffff16146117a8576040517f08c379a000000000000000000000000000000000000000000000000000000000815260040161179f90613863565b60405180910390fd5b600073ffffffffffffffffffffffffffffffffffffffff168273ffffffffffffffffffffffffffffffffffffffff161415611818576040517f08c379a000000000000000000000000000000000000000000000000000000000815260040161180f906138f5565b60405180910390fd5b611823838383612315565b61182e6000826115e4565b6001600360008573ffffffffffffffffffffffffffffffffffffffff1673ffffffffffffffffffffffffffffffffffffffff168152602001908152602001600020600082825461187e9190613944565b925050819055506001600360008473ffffffffffffffffffffffffffffffffffffffff1673ffffffffffffffffffffffffffffffffffffffff16815260200190815260200160002060008282546118d59190613978565b92505081905550816002600083815260200190815260200160002060006101000a81548173ffffffffffffffffffffffffffffffffffffffff021916908373ffffffffffffffffffffffffffffffffffffffff160217905550808273ffffffffffffffffffffffffffffffffffffffff168473ffffffffffffffffffffffffffffffffffffffff167fddf252ad1be2c89b69c2b068fc378daa952ba7f163c4a11628f55a4df523b3ef60405160405180910390a461199483838361231a565b505050565b8173ffffffffffffffffffffffffffffffffffffffff168373ffffffffffffffffffffffffffffffffffffffff161415611a08576040517f08c379a00000000000000000000000000000000000000000000000000000000081526004016119ff90613a1a565b60405180910390fd5b80600560008573ffffffffffffffffffffffffffffffffffffffff1673ffffffffffffffffffffffffffffffffffffffff16815260200190815260200160002060008473ffffffffffffffffffffffffffffffffffffffff1673ffffffffffffffffffffffffffffffffffffffff16815260200190815260200160002060006101000a81548160ff0219169083151502179055508173ffffffffffffffffffffffffffffffffffffffff168373ffffffffffffffffffffffffffffffffffffffff167f17307eab39ab6107e8899845ad3d59bd9653f200f220920489ca2b5937696c3183604051611af991906128eb565b60405180910390a3505050565b611b11848484611732565b611b1d8484848461231f565b611b5c576040517f08c379a0000000000000000000000000000000000000000000000000000000008152600401611b5390613aac565b60405180910390fd5b50505050565b606060405180602001604052806000815250905090565b6060611b8482611591565b6000611b8e611b62565b90506000815111611bae5760405180602001604052806000815250611bd9565b80611bb884611da4565b604051602001611bc99291906133a1565b6040516020818303038152906040525b915050919050565b600081600001549050919050565b60008060008084519050600092505b80821015611d99576000858381518110611c1b57611c1a613acc565b5b602001015160f81c60f81b9050608060f81b817effffffffffffffffffffffffffffffffffffffffffffffffffffffffffffff19161015611c6a57600183611c639190613978565b9250611d85565b60e060f81b817effffffffffffffffffffffffffffffffffffffffffffffffffffffffffffff19161015611cac57600283611ca59190613978565b9250611d84565b60f060f81b817effffffffffffffffffffffffffffffffffffffffffffffffffffffffffffff19161015611cee57600383611ce79190613978565b9250611d83565b60f8801b817effffffffffffffffffffffffffffffffffffffffffffffffffffffffffffff19161015611d2f57600483611d289190613978565b9250611d82565b60fc60f81b817effffffffffffffffffffffffffffffffffffffffffffffffffffffffffffff19161015611d7157600583611d6a9190613978565b9250611d81565b600683611d7e9190613978565b92505b5b5b5b5b508280611d9190613afb565b935050611bfe565b829350505050919050565b60606000821415611dec576040518060400160405280600181526020017f30000000000000000000000000000000000000000000000000000000000000008152509050611f00565b600082905060005b60008214611e1e578080611e0790613afb565b915050600a82611e179190613b73565b9150611df4565b60008167ffffffffffffffff811115611e3a57611e39612bf6565b5b6040519080825280601f01601f191660200182016040528015611e6c5781602001600182028036833780820191505090505b5090505b60008514611ef957600182611e859190613944565b9150600a85611e949190613ba4565b6030611ea09190613978565b60f81b818381518110611eb657611eb5613acc565b5b60200101907effffffffffffffffffffffffffffffffffffffffffffffffffffffffffffff1916908160001a905350600a85611ef29190613b73565b9450611e70565b8093505050505b919050565b611fa184848484604051602401611f1f9493929190613bd5565b6040516020818303038152906040527f9fd009f5000000000000000000000000000000000000000000000000000000007bffffffffffffffffffffffffffffffffffffffffffffffffffffffff19166020820180517bffffffffffffffffffffffffffffffffffffffffffffffffffffffff8381831617835250505050612280565b50505050565b60606000825190506000811415611fd0576040518060200160405280600081525091505061213a565b60006003600283611fe19190613978565b611feb9190613b73565b6004611ff79190613c2f565b905060006020826120089190613978565b67ffffffffffffffff81111561202157612020612bf6565b5b6040519080825280601f01601f1916602001820160405280156120535781602001600182028036833780820191505090505b5090506000604051806060016040528060408152602001613f7a604091399050600181016020830160005b868110156120f75760038101905062ffffff818a015116603f8160121c168401518060081b905060ff603f83600c1c1686015116810190508060081b905060ff603f8360061c1686015116810190508060081b905060ff603f831686015116810190508060e01b9050808452600484019350505061207e565b50600386066001811461211157600281146121215761212c565b613d3d60f01b600283035261212c565b603d60f81b60018303525b508484525050819450505050505b919050565b6121d581604051602401612153919061299f565b6040516020818303038152906040527f41304fac000000000000000000000000000000000000000000000000000000007bffffffffffffffffffffffffffffffffffffffffffffffffffffffff19166020820180517bffffffffffffffffffffffffffffffffffffffffffffffffffffffff8381831617835250505050612280565b50565b6121f28282604051806020016040528060008152506124b6565b5050565b6121ff826122a9565b61223e576040517f08c379a000000000000000000000000000000000000000000000000000000000815260040161223590613cfb565b60405180910390fd5b80600660008481526020019081526020016000209080519060200190612265929190612794565b505050565b6001816000016000828254019250508190555050565b60008151905060006a636f6e736f6c652e6c6f679050602083016000808483855afa5050505050565b60008073ffffffffffffffffffffffffffffffffffffffff166002600084815260200190815260200160002060009054906101000a900473ffffffffffffffffffffffffffffffffffffffff1673ffffffffffffffffffffffffffffffffffffffff1614159050919050565b505050565b505050565b60006123408473ffffffffffffffffffffffffffffffffffffffff16612511565b156124a9578373ffffffffffffffffffffffffffffffffffffffff1663150b7a026123696115dc565b8786866040518563ffffffff1660e01b815260040161238b9493929190613d70565b602060405180830381600087803b1580156123a557600080fd5b505af19250505080156123d657506040513d601f19601f820116820180604052508101906123d39190613dd1565b60015b612459573d8060008114612406576040519150601f19603f3d011682016040523d82523d6000602084013e61240b565b606091505b50600081511415612451576040517f08c379a000000000000000000000000000000000000000000000000000000000815260040161244890613aac565b60405180910390fd5b805181602001fd5b63150b7a0260e01b7bffffffffffffffffffffffffffffffffffffffffffffffffffffffff1916817bffffffffffffffffffffffffffffffffffffffffffffffffffffffff1916149150506124ae565b600190505b949350505050565b6124c08383612534565b6124cd600084848461231f565b61250c576040517f08c379a000000000000000000000000000000000000000000000000000000000815260040161250390613aac565b60405180910390fd5b505050565b6000808273ffffffffffffffffffffffffffffffffffffffff163b119050919050565b600073ffffffffffffffffffffffffffffffffffffffff168273ffffffffffffffffffffffffffffffffffffffff1614156125a4576040517f08c379a000000000000000000000000000000000000000000000000000000000815260040161259b90613e4a565b60405180910390fd5b6125ad816122a9565b156125ed576040517f08c379a00000000000000000000000000000000000000000000000000000000081526004016125e490613eb6565b60405180910390fd5b6125f960008383612315565b6001600360008473ffffffffffffffffffffffffffffffffffffffff1673ffffffffffffffffffffffffffffffffffffffff16815260200190815260200160002060008282546126499190613978565b92505081905550816002600083815260200190815260200160002060006101000a81548173ffffffffffffffffffffffffffffffffffffffff021916908373ffffffffffffffffffffffffffffffffffffffff160217905550808273ffffffffffffffffffffffffffffffffffffffff16600073ffffffffffffffffffffffffffffffffffffffff167fddf252ad1be2c89b69c2b068fc378daa952ba7f163c4a11628f55a4df523b3ef60405160405180910390a461270a6000838361231a565b5050565b82805461271a90613041565b90600052602060002090601f01602090048101928261273c5760008555612783565b82601f1061275557803560ff1916838001178555612783565b82800160010185558215612783579182015b82811115612782578235825591602001919060010190612767565b5b509050612790919061281a565b5090565b8280546127a090613041565b90600052602060002090601f0160209004810192826127c25760008555612809565b82601f106127db57805160ff1916838001178555612809565b82800160010185558215612809579182015b828111156128085782518255916020019190600101906127ed565b5b509050612816919061281a565b5090565b5b8082111561283357600081600090555060010161281b565b5090565b6000604051905090565b600080fd5b600080fd5b60007fffffffff0000000000000000000000000000000000000000000000000000000082169050919050565b6128808161284b565b811461288b57600080fd5b50565b60008135905061289d81612877565b92915050565b6000602082840312156128b9576128b8612841565b5b60006128c78482850161288e565b91505092915050565b60008115159050919050565b6128e5816128d0565b82525050565b600060208201905061290060008301846128dc565b92915050565b600081519050919050565b600082825260208201905092915050565b60005b83811015612940578082015181840152602081019050612925565b8381111561294f576000848401525b50505050565b6000601f19601f8301169050919050565b600061297182612906565b61297b8185612911565b935061298b818560208601612922565b61299481612955565b840191505092915050565b600060208201905081810360008301526129b98184612966565b905092915050565b6000819050919050565b6129d4816129c1565b81146129df57600080fd5b50565b6000813590506129f1816129cb565b92915050565b600060208284031215612a0d57612a0c612841565b5b6000612a1b848285016129e2565b91505092915050565b600073ffffffffffffffffffffffffffffffffffffffff82169050919050565b6000612a4f82612a24565b9050919050565b612a5f81612a44565b82525050565b6000602082019050612a7a6000830184612a56565b92915050565b612a8981612a44565b8114612a9457600080fd5b50565b600081359050612aa681612a80565b92915050565b60008060408385031215612ac357612ac2612841565b5b6000612ad185828601612a97565b9250506020612ae2858286016129e2565b9150509250929050565b600080fd5b600080fd5b600080fd5b60008083601f840112612b1157612b10612aec565b5b8235905067ffffffffffffffff811115612b2e57612b2d612af1565b5b602083019150836001820283011115612b4a57612b49612af6565b5b9250929050565b60008060208385031215612b6857612b67612841565b5b600083013567ffffffffffffffff811115612b8657612b85612846565b5b612b9285828601612afb565b92509250509250929050565b600080600060608486031215612bb757612bb6612841565b5b6000612bc586828701612a97565b9350506020612bd686828701612a97565b9250506040612be7868287016129e2565b9150509250925092565b600080fd5b7f4e487b7100000000000000000000000000000000000000000000000000000000600052604160045260246000fd5b612c2e82612955565b810181811067ffffffffffffffff82111715612c4d57612c4c612bf6565b5b80604052505050565b6000612c60612837565b9050612c6c8282612c25565b919050565b600067ffffffffffffffff821115612c8c57612c8b612bf6565b5b612c9582612955565b9050602081019050919050565b82818337600083830152505050565b6000612cc4612cbf84612c71565b612c56565b905082815260208101848484011115612ce057612cdf612bf1565b5b612ceb848285612ca2565b509392505050565b600082601f830112612d0857612d07612aec565b5b8135612d18848260208601612cb1565b91505092915050565b600060208284031215612d3757612d36612841565b5b600082013567ffffffffffffffff811115612d5557612d54612846565b5b612d6184828501612cf3565b91505092915050565b600060208284031215612d8057612d7f612841565b5b6000612d8e84828501612a97565b91505092915050565b612da0816129c1565b82525050565b6000602082019050612dbb6000830184612d97565b92915050565b612dca816128d0565b8114612dd557600080fd5b50565b600081359050612de781612dc1565b92915050565b60008060408385031215612e0457612e03612841565b5b6000612e1285828601612a97565b9250506020612e2385828601612dd8565b9150509250929050565b600067ffffffffffffffff821115612e4857612e47612bf6565b5b612e5182612955565b9050602081019050919050565b6000612e71612e6c84612e2d565b612c56565b905082815260208101848484011115612e8d57612e8c612bf1565b5b612e98848285612ca2565b509392505050565b600082601f830112612eb557612eb4612aec565b5b8135612ec5848260208601612e5e565b91505092915050565b60008060008060808587031215612ee857612ee7612841565b5b6000612ef687828801612a97565b9450506020612f0787828801612a97565b9350506040612f18878288016129e2565b925050606085013567ffffffffffffffff811115612f3957612f38612846565b5b612f4587828801612ea0565b91505092959194509250565b60008060008060408587031215612f6b57612f6a612841565b5b600085013567ffffffffffffffff811115612f8957612f88612846565b5b612f9587828801612afb565b9450945050602085013567ffffffffffffffff811115612fb857612fb7612846565b5b612fc487828801612afb565b925092505092959194509250565b60008060408385031215612fe957612fe8612841565b5b6000612ff785828601612a97565b925050602061300885828601612a97565b9150509250929050565b7f4e487b7100000000000000000000000000000000000000000000000000000000600052602260045260246000fd5b6000600282049050600182168061305957607f821691505b6020821081141561306d5761306c613012565b5b50919050565b7f4552433732313a20617070726f76616c20746f2063757272656e74206f776e6560008201527f7200000000000000000000000000000000000000000000000000000000000000602082015250565b60006130cf602183612911565b91506130da82613073565b604082019050919050565b600060208201905081810360008301526130fe816130c2565b9050919050565b7f4552433732313a20617070726f76652063616c6c6572206973206e6f7420746f60008201527f6b656e206f776e6572206e6f7220617070726f76656420666f7220616c6c0000602082015250565b6000613161603e83612911565b915061316c82613105565b604082019050919050565b6000602082019050818103600083015261319081613154565b9050919050565b600081905092915050565b60006131ae8385613197565b93506131bb838584612ca2565b82840190509392505050565b60006131d48284866131a2565b91508190509392505050565b7f4552433732313a2063616c6c6572206973206e6f7420746f6b656e206f776e6560008201527f72206e6f7220617070726f766564000000000000000000000000000000000000602082015250565b600061323c602e83612911565b9150613247826131e0565b604082019050919050565b6000602082019050818103600083015261326b8161322f565b9050919050565b7f4552433732313a20696e76616c696420746f6b656e2049440000000000000000600082015250565b60006132a8601883612911565b91506132b382613272565b602082019050919050565b600060208201905081810360008301526132d78161329b565b9050919050565b7f4552433732313a2061646472657373207a65726f206973206e6f74206120766160008201527f6c6964206f776e65720000000000000000000000000000000000000000000000602082015250565b600061333a602983612911565b9150613345826132de565b604082019050919050565b600060208201905081810360008301526133698161332d565b9050919050565b600061337b82612906565b6133858185613197565b9350613395818560208601612922565b80840191505092915050565b60006133ad8285613370565b91506133b98284613370565b91508190509392505050565b7f4e6f20656e6f756768204d415449430000000000000000000000000000000000600082015250565b60006133fb600f83612911565b9150613406826133c5565b602082019050919050565b6000602082019050818103600083015261342a816133ee565b9050919050565b7f2e00000000000000000000000000000000000000000000000000000000000000600082015250565b6000613467600183613197565b915061347282613431565b600182019050919050565b60008190508160005260206000209050919050565b6000815461349f81613041565b6134a98186613197565b945060018216600081146134c457600181146134d557613508565b60ff19831686528186019350613508565b6134de8561347d565b60005b83811015613500578154818901526001820191506020810190506134e1565b838801955050505b50505092915050565b600061351e8285876131a2565b91506135298261345a565b91506135358284613492565b9150819050949350505050565b600061354e8286613492565b915061355a8285613370565b91506135668284613492565b9150819050949350505050565b7f7b226e616d65223a202200000000000000000000000000000000000000000000600082015250565b60006135a9600a83613197565b91506135b482613573565b600a82019050919050565b7f222c20226465736372697074696f6e223a20224120646f6d61696e206f6e207460008201527f686520636f6f6c206e616d652073657276696365222c2022696d616765223a2060208201527f22646174613a696d6167652f7376672b786d6c3b6261736536342c0000000000604082015250565b6000613641605b83613197565b915061364c826135bf565b605b82019050919050565b7f222c226c656e677468223a220000000000000000000000000000000000000000600082015250565b600061368d600c83613197565b915061369882613657565b600c82019050919050565b7f227d000000000000000000000000000000000000000000000000000000000000600082015250565b60006136d9600283613197565b91506136e4826136a3565b600282019050919050565b60006136fa8261359c565b91506137068286613370565b915061371182613634565b915061371d8285613370565b915061372882613680565b91506137348284613370565b915061373f826136cc565b9150819050949350505050565b7f646174613a6170706c69636174696f6e2f6a736f6e3b6261736536342c000000600082015250565b6000613782601d83613197565b915061378d8261374c565b601d82019050919050565b60006137a382613775565b91506137af8284613370565b915081905092915050565b600060408201905081810360008301526137d48185612966565b905081810360208301526137e88184612966565b90509392505050565b7f4552433732313a207472616e736665722066726f6d20696e636f72726563742060008201527f6f776e6572000000000000000000000000000000000000000000000000000000602082015250565b600061384d602583612911565b9150613858826137f1565b604082019050919050565b6000602082019050818103600083015261387c81613840565b9050919050565b7f4552433732313a207472616e7366657220746f20746865207a65726f2061646460008201527f7265737300000000000000000000000000000000000000000000000000000000602082015250565b60006138df602483612911565b91506138ea82613883565b604082019050919050565b6000602082019050818103600083015261390e816138d2565b9050919050565b7f4e487b7100000000000000000000000000000000000000000000000000000000600052601160045260246000fd5b600061394f826129c1565b915061395a836129c1565b92508282101561396d5761396c613915565b5b828203905092915050565b6000613983826129c1565b915061398e836129c1565b9250827fffffffffffffffffffffffffffffffffffffffffffffffffffffffffffffffff038211156139c3576139c2613915565b5b828201905092915050565b7f4552433732313a20617070726f766520746f2063616c6c657200000000000000600082015250565b6000613a04601983612911565b9150613a0f826139ce565b602082019050919050565b60006020820190508181036000830152613a33816139f7565b9050919050565b7f4552433732313a207472616e7366657220746f206e6f6e20455243373231526560008201527f63656976657220696d706c656d656e7465720000000000000000000000000000602082015250565b6000613a96603283612911565b9150613aa182613a3a565b604082019050919050565b60006020820190508181036000830152613ac581613a89565b9050919050565b7f4e487b7100000000000000000000000000000000000000000000000000000000600052603260045260246000fd5b6000613b06826129c1565b91507fffffffffffffffffffffffffffffffffffffffffffffffffffffffffffffffff821415613b3957613b38613915565b5b600182019050919050565b7f4e487b7100000000000000000000000000000000000000000000000000000000600052601260045260246000fd5b6000613b7e826129c1565b9150613b89836129c1565b925082613b9957613b98613b44565b5b828204905092915050565b6000613baf826129c1565b9150613bba836129c1565b925082613bca57613bc9613b44565b5b828206905092915050565b60006080820190508181036000830152613bef8187612966565b90508181036020830152613c038186612966565b90508181036040830152613c178185612966565b9050613c266060830184612d97565b95945050505050565b6000613c3a826129c1565b9150613c45836129c1565b9250817fffffffffffffffffffffffffffffffffffffffffffffffffffffffffffffffff0483118215151615613c7e57613c7d613915565b5b828202905092915050565b7f45524337323155524953746f726167653a2055524920736574206f66206e6f6e60008201527f6578697374656e7420746f6b656e000000000000000000000000000000000000602082015250565b6000613ce5602e83612911565b9150613cf082613c89565b604082019050919050565b60006020820190508181036000830152613d1481613cd8565b9050919050565b600081519050919050565b600082825260208201905092915050565b6000613d4282613d1b565b613d4c8185613d26565b9350613d5c818560208601612922565b613d6581612955565b840191505092915050565b6000608082019050613d856000830187612a56565b613d926020830186612a56565b613d9f6040830185612d97565b8181036060830152613db18184613d37565b905095945050505050565b600081519050613dcb81612877565b92915050565b600060208284031215613de757613de6612841565b5b6000613df584828501613dbc565b91505092915050565b7f4552433732313a206d696e7420746f20746865207a65726f2061646472657373600082015250565b6000613e34602083612911565b9150613e3f82613dfe565b602082019050919050565b60006020820190508181036000830152613e6381613e27565b9050919050565b7f4552433732313a20746f6b656e20616c7265616479206d696e74656400000000600082015250565b6000613ea0601c83612911565b9150613eab82613e6a565b602082019050919050565b60006020820190508181036000830152613ecf81613e93565b905091905056fe0a2d2d2d2d2d2d2d2d2d2d2d2d2d2d2d2d2d2d2d2d2d2d2d2d2d2d2d2d2d2d2d2d2d2d2d2d2d2d2d2d2d2d2d2d2d2d2d2d2d2d2d2d2d2d2d2d5265676973746572696e672025732e2573206f6e2074686520636f6e7472616374207769746820746f6b656e49442025642d2d2d2d2d2d2d2d2d2d2d2d2d2d2d2d2d2d2d2d2d2d2d2d2d2d2d2d2d2d2d2d2d2d2d2d2d2d2d2d2d2d2d2d2d2d2d2d2d2d2d2d2d2d2d2d0a4142434445464748494a4b4c4d4e4f505152535455565758595a6162636465666768696a6b6c6d6e6f707172737475767778797a303132333435363738392b2fa26469706673582212207c7b2471933aa07e06f1b85dfbf223f3eb82ef88e243dd0e307e991391eb979c64736f6c634300080900333c73766720786d6c6e733d22687474703a2f2f7777772e77332e6f72672f323030302f737667222077696474683d2232373022206865696768743d22323730222066696c6c3d226e6f6e65223e3c706174682066696c6c3d2275726c282342292220643d224d302030683237307632373048307a222f3e3c646566733e3c66696c7465722069643d22412220636f6c6f722d696e746572706f6c6174696f6e2d66696c746572733d2273524742222066696c746572556e6974733d227573657253706163654f6e55736522206865696768743d22323730222077696474683d22323730223e3c666544726f70536861646f772064783d2230222064793d22312220737464446576696174696f6e3d22322220666c6f6f642d6f7061636974793d222e323235222077696474683d223230302522206865696768743d2232303025222f3e3c2f66696c7465723e3c2f646566733e3c7061746820643d224d37322e3836332034322e393439632d2e3636382d2e3338372d312e3432362d2e35392d322e3139372d2e3539732d312e3532392e3230342d322e3139372e35396c2d31302e30383120362e3033322d362e383520332e3933342d31302e30383120362e303332632d2e3636382e3338372d312e3432362e35392d322e3139372e3539732d312e3532392d2e3230342d322e3139372d2e35396c2d382e3031332d342e37323161342e353220342e35322030203020312d312e3538392d312e363136632d2e3338342d2e3636352d2e3539342d312e3431382d2e3630382d322e313837762d392e3331632d2e3031332d2e3737352e3138352d312e3533382e3537322d322e32303861342e323520342e323520302030203120312e3632352d312e3539356c372e3838342d342e3539632e3636382d2e33383720312e3432362d2e353920322e3139372d2e353973312e3532392e32303420322e3139372e35396c372e38383420342e353961342e353220342e353220302030203120312e35383920312e363136632e3338342e3636352e35393420312e3431382e36303820322e31383776362e3033326c362e38352d342e303635762d362e303332632e3031332d2e3737352d2e3138352d312e3533382d2e3537322d322e32303861342e323520342e32352030203020302d312e3632352d312e3539354c34312e3435362032342e3539632d2e3636382d2e3338372d312e3432362d2e35392d322e3139372d2e3539732d312e3532392e3230342d322e3139372e35396c2d31342e38363420382e36353561342e323520342e32352030203020302d312e36323520312e353935632d2e3338372e36372d2e35383520312e3433342d2e35373220322e3230387631372e343431632d2e3031332e3737352e31383520312e3533382e35373220322e32303861342e323520342e323520302030203020312e36323520312e3539356c31342e38363420382e363535632e3636382e33383720312e3432362e353920322e3139372e353973312e3532392d2e32303420322e3139372d2e35396c31302e3038312d352e39303120362e38352d342e3036352031302e3038312d352e393031632e3636382d2e33383720312e3432362d2e353920322e3139372d2e353973312e3532392e32303420322e3139372e35396c372e38383420342e353961342e353220342e353220302030203120312e35383920312e363136632e3338342e3636352e35393420312e3431382e36303820322e31383776392e333131632e3031332e3737352d2e31383520312e3533382d2e35373220322e32303861342e323520342e32352030203020312d312e36323520312e3539356c2d372e38383420342e373231632d2e3636382e3338372d312e3432362e35392d322e3139372e3539732d312e3532392d2e3230342d322e3139372d2e35396c2d372e3838342d342e353961342e353220342e35322030203020312d312e3538392d312e363136632d2e3338352d2e3636352d2e3539342d312e3431382d2e3630382d322e313837762d362e3033326c2d362e383520342e30363576362e303332632d2e3031332e3737352e31383520312e3533382e35373220322e32303861342e323520342e323520302030203020312e36323520312e3539356c31342e38363420382e363535632e3636382e33383720312e3432362e353920322e3139372e353973312e3532392d2e32303420322e3139372d2e35396c31342e3836342d382e363535632e3635372d2e33393420312e3230342d2e393520312e3538392d312e363136732e3539342d312e3431382e3630392d322e3138375635352e353338632e3031332d2e3737352d2e3138352d312e3533382d2e3537322d322e32303861342e323520342e32352030203020302d312e3632352d312e3539356c2d31342e3939332d382e3738367a222066696c6c3d2223666666222f3e3c646566733e3c6c696e6561724772616469656e742069643d2242222078313d2230222079313d2230222078323d22323730222079323d2232373022206772616469656e74556e6974733d227573657253706163654f6e557365223e3c73746f702073746f702d636f6c6f723d2223636235656565222f3e3c73746f70206f66667365743d2231222073746f702d636f6c6f723d2223306364376534222073746f702d6f7061636974793d222e3939222f3e3c2f6c696e6561724772616469656e743e3c2f646566733e3c7465787420783d2233322e352220793d223233312220666f6e742d73697a653d223237222066696c6c3d2223666666222066696c7465723d2275726c282341292220666f6e742d66616d696c793d22506c7573204a616b617274612053616e732c44656a6156752053616e732c4e6f746f20436f6c6f7220456d6f6a692c4170706c6520436f6c6f7220456d6f6a692c73616e732d73657269662220666f6e742d7765696768743d22626f6c64223e",
  "linkReferences": {},
  "deployedLinkReferences": {}
}